:020000040800F2
:10000000E008002001010008B13300080D300008AD
:10001000AD330008F5020008614A00080000000046
:10002000000000000000000000000000453D000846
:1000300035030008000000004B370008473D00086A
:100040001B0100081B0100081B0100081B01000820
:100050001B0100081B0100081B0100081B01000810
:100060001B0100081B0100081B010008F902000821
:100070001B0100081B0100081B0100081B010008F0
:100080001B0100081B010008910100081B0100086A
:10009000A94900081B0100081B0100081B010008FA
:1000A0001B0100081B0100081B0100081B010008C0
:1000B000DD3E0008ED3E00081B0100081B010008A2
:1000C0001B0100081B0100081B0100081B010008A0
:1000D000A5380008F14400081B0100081B010008B6
:1000E0001B0100081B0100081B010008DFF80CD0F1
:1000F00000F03CF800480047294B0008E0080020C9
:100100000648804706480047FEE7FEE7FEE7FEE7B1
:10011000FEE7FEE7FEE7FEE7FEE7FEE7D93D000863
:10012000ED00000840EA01039B0703D009E008C97D
:10013000121F08C0042AFAD203E011F8013B00F8AC
:10014000013B521EF9D27047D2B201E000F8012BF8
:10015000491EFBD270470022F6E710B513460A4647
:1001600004461946FFF7F0FF204610BD064C074D28
:1001700006E0E06840F0010394E807009847103477
:10018000AC42F6D3FFF7B6FFF84B0008184C000856
:1001900010B5024800F0BCF910BD0000940000202A
:1001A00070B5044600252068806800F00100F0B1B9
:1001B0002068806820F001002168886000F03CFF22
:1001C00005460EE000F038FF401B022809D9A06A5E
:1001D00040F01000A062E06A40F00100E0620120FF
:1001E00070BD2068806800F001000028EAD100207E
:1001F000F6E770B505466C6AA06A00F05000E0B9F9
:10020000A06A40F40070A0622068806800F460205A
:10021000B0F5602F0DD1207B58B9A06A20F4807012
:10022000A062A06A00F4805018B9A06A40F00100F2
:10023000A062204600F032F903E0206A016B2846F4
:10024000884770BD70B505466C6AA06A40F04000F2
:10025000A062E06A40F00400E062204600F057F936
:1002600070BD70B50446656A284600F04FF970BD50
:1002700038B504460025002000902068806800F012
:10028000010080BB2068806840F001002168886020
:10029000164800681649B0FBF1F0009002E00098A3
:1002A000401E009000980028F9D100F0C5FE0546D8
:1002B00013E000F0C1FE401B02280ED9A06A40F0F6
:1002C0001000A062E06A40F00100E06200BF002080
:1002D00084F8240000BF012038BD2068806800F049
:1002E00001000028E5D00020F6E700004C000020C7
:1002F00040420F0000BFFEE710B5024800F0B6FB19
:1003000010BD0000C400002030B590F8405001241A
:10031000AC40C56B6C60046863604468102C04D109
:100320000468A2600468E16003E00468A1600468F6
:10033000E26030BD704770477047000038B5024634
:1003400000230020009000BF92F82400012801D172
:10035000022038BD012082F8240000BF4868072829
:1003600012D21068406B0C79641E04EB84051F24C4
:10037000AC40A0430D796D1E05EB85050C68AC40C3
:1003800020431468606327E048680D2812D2106883
:10039000006B0C79E41F04EB84051F24AC40A043E0
:1003A0000D79ED1F05EB85050C68AC402043146802
:1003B000206311E01068C06A0C790D3C04EB8405E1
:1003C0001F24AC40A0430D790D3D05EB85050C685D
:1003D000AC4020431468E06208680A2812D3106811
:1003E000C0680C780A3C04EB44050724AC40A043E9
:1003F0000D780A3D05EB45058C68AC402043146838
:10040000E0600FE0106800690C7804EB44050724F5
:10041000AC40A0430D7805EB45058C68AC4020430B
:10042000146820610868102802D00868112827D1B4
:10043000174C1068A0421ED11068806800F40000BC
:10044000F0B91068806840F400001468A060086883
:10045000102815D10F4800680F4CB0FBF4F000EBEA
:1004600080004000009002E00098401E009000983C
:100470000028F9D104E0906A40F020009062012346
:1004800000BF002082F8240000BF184661E700008A
:10049000002401404C00002040420F000146002093
:1004A0000AE0164A52F82020154B33F810301A444F
:1004B000124B43F82020401C0428F2DB114A12881A
:1004C000521C104B1A801A461288642A14D100203C
:1004D0000DE00A4A52F820206423B2FBF3F20A4BE3
:1004E00023F810200022054B43F82020401C04284C
:1004F000EFDB0022034B1A807047000070000020E1
:100500000000002010000020080000207047704705
:1005100010B504462068406800F0200020282FD144
:100520002068006800F00200022829D1A06A00F0CB
:10053000100018B9A06A40F40070A06220688068BA
:1005400000F46020B0F5602F13D1207B88B92068BB
:10055000406820F0200021684860A06A20F4807084
:10056000A062A06A00F4805018B9A06A40F00100AF
:10057000A0622046FFF792FF6FF01200216808602A
:100580002068406800F0800080283BD12068006827
:1005900000F00400042835D1A06A00F0100018B95A
:1005A000A06A40F40050A0622068806800F4E04037
:1005B000B0F5E04F0DD02068406800F48060D0B9FD
:1005C0002068806800F46020B0F5602F13D1207B94
:1005D00088B92068406820F0800021684860A06ADF
:1005E00020F48050A062A06A00F4807018B9A06A5C
:1005F00040F00100A0622046FFF79EFE6FF00C0065
:10060000216808602068406800F0400040280FD151
:100610002068006800F0010050B1A06A40F480300A
:10062000A062204600F0A8F86FF001002168086081
:1006300010BD00002DE9F0410446002700250026EA
:10064000A84614B90120BDE8F081A06810B1207D52
:1006500000B100BFA06A30B90020E06284F8240035
:10066000204600F08BF82046FFF79AFD0746A06A67
:1006700000F01000002873D1002F71D1A06A20F47F
:10068000885040F00200A062E16960680843217B65
:1006900040EA41000643A068B0F5807F02D0A06820
:1006A000012802D14FF4807000E000200543207D36
:1006B000012811D1207B38B9A069401E4FF4006198
:1006C00041EA4030054307E0A06A40F02000A06204
:1006D000E06A40F00100E0622068406820F4694070
:1006E00028432168486020688068214908403043D9
:1006F00021688860A068B0F5807F02D0A0680128DA
:1007000002D14FF4807000E00020B0F5807F03D16B
:10071000208A401E4FEA00582068C06A20F470000A
:1007200040EA08002168C8622068806811490840D2
:10073000B04208D10020E062A06A20F0020040F040
:100740000100A06211E0A06A20F0020040F0100059
:10075000A062E06A40F00100E062012705E0FFE7E7
:10076000A06A40F01000A062012738466BE7000045
:10077000FDF7E1FFFE0E1FFF7047000010B586B0C9
:1007800004460020029003900490059026492068BA
:10079000884246D100BF2548806940F40070234953
:1007A00088610846806900F40070019000BF00BFB6
:1007B00000BF0846806940F00400886108468069EF
:1007C00000F00400019000BF00BF0F200290032042
:1007D000039002A9164800F099FA164816490860D5
:1007E000002048600021144881608021C1604900D8
:1007F00001618900416120218161C901C16100F06D
:1008000003FA08B1FFF797FD00BF0B48206244626E
:1008100000BF00220221122000F0CAFD122000F0C9
:10082000B7FD06B010BD00000024014000100240DA
:100830000008014008000240C40000202DE9F041FA
:1008400004460D461646002757492068884203D0C3
:1008500056492068884205D15348001D006800F4BD
:10086000702000E0002000287ED100BF94F8240012
:10087000012802D10220BDE8F081012084F8240083
:1008800000BF2046FFF7F4FC0746002F6DD1A06A99
:1008900040F60161884340F48070A06243492068BB
:1008A000884209D14048001D006800F4702008B952
:1008B000012002E0002000E0012078B1A06A20F4CD
:1008C0008010A0622068406800F4806000B3A06AD5
:1008D00020F4005040F48050A06219E0A06A40F477
:1008E0008010A06230492068884203D02F492068D8
:1008F000884205D12C48001D006800F4806000E0AB
:10090000002028B1A06A20F4005040F48050A0627A
:10091000A06A00F4805020B1E06A20F00600E06296
:1009200001E00020E06200BF002084F8240000BF46
:100930001F48216A88621F48216AC8621E48216ACE
:1009400008636FF00200216808602068806840F446
:10095000807021688860226802F14C0133462A4683
:10096000206A00F085F901E01AE014E02068806850
:1009700000F46020B0F5602F06D12068806840F454
:10098000A000216888600CE02068806840F4801036
:100990002168886005E000BF002084F8240000E0A2
:1009A0000127384667E70000002401400028014085
:1009B000F3010008630200084502000870B5044610
:1009C000002594F82100022803D00420A06301250B
:1009D00048E02068006820F00E0021680860206868
:1009E000006820F00100216808601F4920688842E3
:1009F00001D1012026E01C4914312068884201D130
:100A000010201FE0184928312068884201D1801544
:100A100018E015493C312068884201D1801411E06A
:100A2000114950312068884202D14FF4803009E0EA
:100A30000D4964312068884202D14FF4801001E0F2
:100A40004FF08070084908394860012084F821007F
:100A500000BF002084F8200000BF606B10B120466A
:100A6000616B8847284670BD0800024070B5044697
:100A7000E06B05682068066894F840100420884000
:100A80002840002846D006F00400002842D0206804
:100A9000006800F0200028B92068006820F00400F9
:100AA0002168086057492068884201D1042027E066
:100AB000544914312068884201D1402020E0514936
:100AC00028312068884201D1001519E04D493C3198
:100AD0002068884202D14FF4804011E049495031EA
:100AE0002068884202D14FF4802009E045496431F2
:100AF0002068884202D14FF4800001E04FF080600E
:100B0000404908394860E06A00287AD02046E16A06
:100B1000884776E094F84010022088402840A0B32F
:100B200006F0020088B32068006800F0200040B999
:100B30002068006820F00A0021680860012084F81D
:100B4000210030492068884201D1022028E02D4947
:100B500014312068884201D1202021E02949283120
:100B60002068884201D140151AE026493C312068AE
:100B7000884202D14FF4005012E0224950312068DF
:100B8000884203D14FF400300AE017E01D49643178
:100B90002068884202D14FF4001001E04FF000704D
:100BA00018490839486000BF002084F8200000BFC1
:100BB000A06A30B32046A16A884722E094F840102A
:100BC000082088402840E0B106F00800C8B120683D
:100BD000006820F00E002168086094F840100120A1
:100BE0008840E16B48600120A06384F8210000BFC9
:100BF000002084F8200000BF206B10B12046216B3C
:100C0000884770BD080002400146002209B9012052
:100C10007047164B0868C01A1423B0FBF3F080002D
:100C2000086412480838C863022081F82100086867
:100C3000026843F6F0708243D1E901031843CB68A0
:100C400018430B6918434B6918438B691843CB69E8
:100C5000184302430868026000208863012081F87D
:100C60002100002081F8200000BFD1E708000240E9
:100C70002DE9F04104460D4616461F464FF0000888
:100C800000BF94F82000012802D10220BDE8F081C5
:100C9000012084F8200000BF94F8210001282CD105
:100CA000022084F821000020A0632068006820F062
:100CB0000100216808603B46324629462046FFF77E
:100CC00023FBE06A30B12068006840F00E00216824
:100CD00008600BE02068006820F0040021680860CC
:100CE0002068006840F00A002168086020680068F9
:100CF00040F001002168086006E000BF002084F891
:100D0000200000BF4FF002084046BFE72DE9F8473A
:100D10000346002294466EE14FF0010808FA02F4FF
:100D2000D1F8008008EA0400A0427DD1DFF8DCA2FF
:100D3000D1F80480A8EB0A09D0453AD014DCB8F108
:100D4000030F50D009DCB8F1000F31D0B8F1010F1A
:100D50001CD0B8F1020F49D120E0B8F1110F18D022
:100D6000B8F1120F42D11EE0B9F5881F25D006DC7C
:100D7000B9F5803F20D0B9F5801F37D11AE0B9F519
:100D8000001F18D0B9F5041F30D117E0D1F80CC0FE
:100D90002DE0D1F80C8008F1040C28E0D1F80C808B
:100DA00008F1080C23E0D1F80C8008F10C0C1EE0CF
:100DB00000BF00BF00BF00BF00BF00BFD1F8088068
:100DC000B8F1000F02D14FF0040C0BE0D1F808800D
:100DD000B8F1010F03D14FF0080C1C6102E04FF095
:100DE000080C5C6103E04FF0000C00E000BF00BFA6
:100DF000FF2801D8984601E003F104084646FF2881
:100E000002D84FEA820803E0A2F108084FEA8808F6
:100E10004746D6F800804FF00F0909FA07F928EA8B
:100E200009080CFA07F900E088E048EA0908C6F862
:100E30000080D1F8048008F08058B8F1805F7DD13F
:100E400000BFDFF8CC81D8F8188048F00108DFF83F
:100E5000C091C9F81880C846D8F8188008F0010871
:100E6000CDF8008000BF00BF4FEAB9384FEA9209C1
:100E700058F829504FEA82784FEA18794FF00F0856
:100E800008FA09F825EA0805DFF88881434502D108
:100E90004FF0000816E0DFF88081434502D14FF0A3
:100EA00001080FE0DFF87481434502D14FF00208DA
:100EB00008E0DFF86C81434502D14FF0030801E000
:100EC0004FF004084FEA82794FEA197908FA09F8D5
:100ED00048EA0505DFF84C814FEA920948F82950A5
:100EE000D1F8048008F48038B8F5803F0AD1DFF8E3
:100EF0003881D8F8008048EA0008DFF82C91C9F85A
:100F0000008009E0DFF82081D8F8008028EA000896
:100F1000DFF81491C9F80080D1F8048008F4003893
:100F2000B8F5003F10D1DFF8008108F10408D8F8C7
:100F3000008048EA0008DFF8F09000E05AE009F18C
:100F40000409C9F800800DE0DFF8DC8008F104082E
:100F5000D8F8008028EA0008DFF8CC9009F10409ED
:100F6000C9F80080D1F8048008F48018B8F5801F13
:100F70000ED1DFF8B48008F10808D8F8008048EAFC
:100F80000008DFF8A49009F10809C9F800800DE015
:100F9000DFF8948008F10808D8F8008028EA0008F3
:100FA000DFF8849009F10809C9F80080D1F80480BD
:100FB00008F40018B8F5001F0ED1DFF86C8008F1B6
:100FC0000C08D8F8008048EA0008DFF85C9009F1C6
:100FD0000C09C9F800800DE0DFF84C8008F10C081E
:100FE000D8F8008028EA0008DFF83C9009F10C09E5
:100FF000C9F80080521CD1F8008028FA02F8B8F134
:10100000000F7FF489AEBDE8F887000000001110E2
:101010000010024000080140000C01400010014097
:101020000014014008000140000401400AB10161C0
:1010300001E00B040361704701480068704700003D
:101040004000002070B504460CB9012070BD94F832
:101050003D0028B9002084F83C00204600F0CEF87E
:10106000242084F83D002068006820F001002168F9
:10107000086000F037FD05465C496068884206D884
:101080005B48854201D2012007E0002005E0594875
:10109000854201D2012000E00020012800D1D5E7DF
:1010A0005548B5FBF0F62068406820F03F0030431B
:1010B000216848604D496068884201D8701C07E08B
:1010C0004FF4967070434FF47A71B0FBF1F0401C0E
:1010D0002168096A21F03F010843216808624349F9
:1010E0006068884214D8681E61684900B0FBF1F05E
:1010F000401CC0F30B00042801D204203DE0681E10
:1011000061684900B0FBF1F0401CC0F30B0034E013
:10111000A06838B9681E616801EB4101B0FBF1F0CD
:10112000401C0AE0681E616801EBC10202EB01117C
:10113000B0FBF1F0401C40F48040C0F30B0008B954
:1011400001201AE0A06848B9681E616801EB4101FE
:10115000B0FBF1F0401CC0F30B000CE0681E6168AE
:1011600001EBC10202EB0111B0FBF1F0401CC0F336
:101170000B0040F4804040F400402168C9694CF6FF
:10118000FF72914308432168C861D4E9070108430D
:101190002168096821F0C001084321680860D4E98A
:1011A000031008432168896848F2FF3291430843DD
:1011B00021688860D4E9050108432168C96821F0E5
:1011C000FF0108432168C8602068006840F0010002
:1011D0002168086000202064202084F83D00002061
:1011E000206384F83E0000BF30E70000A0860100C5
:1011F00080841E0000093D0040420F0010B586B0FB
:101200000446002002900390049005901549206840
:10121000884225D100BF1448806940F00800124977
:1012200088610846806900F00800019000BF00BF97
:10123000C0200290122003900320059002A90B48C1
:10124000FFF764FD00BF0848C06940F4001006497C
:10125000C8610846C06900F40010019000BF00BFDB
:1012600006B010BD0054004000100240000C0140C8
:101270000348006803490978084401490860704739
:10128000400000204800002010B50848006840F0E9
:10129000100006490860032000F0C8F8002000F0A4
:1012A00007F800F02BF8002010BD000000200240DD
:1012B00070B504460E4800784FF47A71B1FBF0F037
:1012C0000C490968B1FBF0F5284601F048F908B16E
:1012D000012070BD102C07D200222146501E00F0C4
:1012E00067F80548046001E00120F2E70020F0E71C
:1012F000480000204C0000204400002008B500BF3A
:101300002148806940F001001F49886108468069D2
:1013100000F00100009000BF00BF00BF0846C06998
:1013200040F08050C8610846C06900F080500090CD
:1013300000BF00BF002206216FF00B0000F038F85C
:10134000002206216FF00A0000F032F80022062188
:101350006FF0090000F02CF800220621501F00F069
:1013600027F800220621101F00F022F80022062193
:10137000901E00F01DF800BF0449486820F0E060AE
:1013800000BF486000BF08BD0010024000000140DF
:1013900001460846002809DB00F01F0301229A409D
:1013A00043099B0003F1E023C3F8002100BF70470D
:1013B0002DE9F05F80460D461646002703F052FBEC
:1013C000074639462A46334601F00700C0F1070AAE
:1013D000BAF1040F02D94FF0040A01E0C0F1070A84
:1013E000D14600F1040ABAF1070F02D24FF0000A09
:1013F00001E0A0F1030AD4464FF0010A0AFA09FA03
:10140000AAF1010A0AEA020A0AFA0CFA4FF0010BE1
:101410000BFA0CFBABF1010B0BEA030B4AEA0B04D2
:101420002146404603F026FBBDE8F09F00BF00F0D8
:101430000702064B19684FF6FF031940044B0B4394
:1014400043EA0221014B196000BF70470CED00E038
:101450000000FA05704770472DE9F04105460E4639
:101460001746984606F0070105F5947000EB411405
:101470006761C4F818800020E061607006F0070022
:10148000207006F0070020B92146286803F058F8BC
:1014900003E02146286803F053F80020BDE8F081FE
:1014A0002DE9F04105460E461746984606F007011D
:1014B00005F1280000EB41146761C4F81880002092
:1014C000E0610120607006F00700207006F0070060
:1014D00020B92146286803F033F803E02146286844
:1014E00003F02EF80020BDE8F08110B50446206816
:1014F00003F062FA00F40040B0F5004F02D120463C
:1015000001F057FF206803F057FA00F48060B0F54F
:10151000806F0ED12068B0F8440020F4806021680C
:10152000A1F84400204600F059F90021204600F0BF
:1015300058F9206803F040FA00F48040B0F5804F7D
:1015400007D12068B0F8440020F480402168A1F859
:101550004400206803F030FA00F40050B0F5005F5A
:1015600007D12068B0F8440020F400502168A1F8A9
:101570004400206803F020FA00F48050B0F5805F4A
:101580001CD12068B0F840004FF6FB71084021687C
:10159000A1F840002068B0F840004FF6F77108400D
:1015A0002168A1F84000204600F019F92068B0F841
:1015B000440020F480502168A1F84400206803F022
:1015C000FBF900F40060B0F5006F2AD12068B0F894
:1015D000400040F008002168A1F840002068B0F801
:1015E000440020F400602168A1F844002068B0F8AD
:1015F000400040F004002168A1F84000206803F09A
:10160000DBF900F48050B0F5805F07D12068B0F8B6
:10161000440020F480502168A1F84400204600F0E6
:10162000FCF8206803F0C8F900F40070B0F5007F02
:101630000AD12068B0F8440020F400702168A1F8B5
:101640004400204600F0CCF8206803F0B5F900F41F
:101650008070B0F5807F07D12068B0F8440020F496
:1016600080702168A1F8440010BD30B585B00446F3
:1016700014B9012005B030BD94F8290228B9002022
:1016800084F82802204600F087F8032084F8290215
:10169000206802F04BFF142204F110016846FEF7A7
:1016A00041FD94E80F0002F02BFF20B1022084F8E6
:1016B00029020120DEE70021206803F0A6F90025B9
:1016C00026E0012104F1280000EB4510417004F1EF
:1016D000280000EB4510057004F1280000EB4510D0
:1016E000C581002104F1280000EB4510C17004F110
:1016F000280000EB4510016104F1280000EB4510C3
:10170000416104F1280000EB45108161681CC5B2FD
:101710006068A842D5D8002520E0002104F5947027
:1017200000EB4510417004F5947000EB4510057016
:1017300004F5947000EB4510C17004F5947000EB53
:101740004510016104F5947000EB4510416104F50A
:10175000947000EB45108161681CC5B26068A842B6
:10176000DBD8142204F110016846FEF7DBFC94E894
:101770000F0002F0CCFE20B1022084F829020120E3
:1017800078E7002084F82400012084F829022068EA
:1017900002F0BAFE00206DE738B504460D49206816
:1017A000884215D100BF0C48C06940F400000A49C6
:1017B000C8610846C06900F40000009000BF00BF87
:1017C000002205211420FFF7F3FD1420FFF7E0FDB0
:1017D00038BD0000005C00400010024070477047B8
:1017E000704770B504460D4600BF94F828020128E2
:1017F00001D1022070BD012084F8280200BF84F8C6
:1018000024502946206803F003F900BF002084F823
:10181000280200BF00BFEDE770477047F8B50446E7
:1018200000260025207800F0010000286BD000275A
:101830004348C06900F0805070B900BF4048C0699B
:1018400040F080503E49C8610846C06900F08050B1
:10185000009000BF00BF01273A48006800F4807084
:10186000B0B93848006840F4807036490860FFF726
:10187000E3FB064606E0FFF7DFFB801B642801D987
:101880000320F8BD2F48006800F480700028F2D0D3
:101890002B48006A00F440752DB3A08800F4407016
:1018A000A84220D02648006A20F44075012026492D
:1018B0000860002008602248056205F0010090B130
:1018C000FFF7BAFB064608E0FFF7B6FB801B41F2C4
:1018D0008831884201D90320D3E71948006A00F013
:1018E00002000028F0D01648006A20F440706168B9
:1018F000084313490862012F04D10846C06920F04B
:101900008050C86100BF207800F00200022807D193
:101910000B48406820F44040A168084308494860EB
:10192000207800F01000102807D10548406820F406
:101930008000E1680843024948600020A1E70000F8
:1019400000100240007000404004424270B504465E
:101950000D460CB9012070BD5A48006800F0070020
:10196000A8420ED25748006820F007002843554986
:1019700008600846006800F00700A84201D0012076
:10198000E9E7207800F0020002281DD1207800F05D
:101990000400042805D14C48406840F4E0604A49FE
:1019A0004860207800F00800082805D146484068C3
:1019B00040F46050444948604348406820F0F000DB
:1019C000A168084340494860207800F0010078B3DE
:1019D0006068012806D13C48006800F4003090B9E6
:1019E0000120B8E76068022806D13748006800F097
:1019F000007040B90120AEE73348006800F00200F3
:101A000008B90120A7E73048406820F0030061686A
:101A100008432D494860FFF70FFB064609E0FFF732
:101A20000BFB801B41F28831884202D9032092E7E8
:101A300007E02548406800F00C006168B0EB810FBA
:101A4000EDD12048006800F00700A8420ED91D48DB
:101A5000006820F0070028431A490860084600681B
:101A600000F00700A84201D0012074E7207800F0C0
:101A70000400042807D11448406820F4E060E168BD
:101A8000084311494860207800F00800082808D170
:101A90000D48406820F46050216940EAC1000A49BD
:101AA000486000F03FF808494968C1F30311074A4C
:101AB000515CC8400649086006480068FFF7F8FB1B
:101AC000002048E70020024000100240E04B0008E0
:101AD0004C000020440000200148006870470000CE
:101AE0004C00002000B5FFF7F7FF04494968C1F337
:101AF0000221034A515CC84000BD000000100240B2
:101B0000F04B000800B5FFF7E7FF04494968C1F34F
:101B1000C221034A515CC84000BD000000100240D1
:101B2000F04B0008F0B585B00FF26C0C9CE8E010AB
:101B300001A8A0E8E0101CA52D6800950021002256
:101B4000002300240020194D696801F00C05F5B14F
:101B5000042D02D0082D19D101E0154819E001AD7E
:101B6000C1F38346AC5D01F4803555B10F4D6D680E
:101B7000C5F340451DF805200D4D6543B5FBF2F357
:101B800002E00C4D04FB05F3184602E000BF0848D4
:101B900000BF00BF05B0F0BD020304050607080939
:101BA0000A0B0C0D0E0F1010010200000010024075
:101BB00000127A0000093D00F8B504460CB9012076
:101BC000F8BD207800F00100002878D0F84840687F
:101BD00000F00C0004280CD0F548406800F00C0020
:101BE000082811D1F248406800F48030B0F5803FF9
:101BF0000AD1EF48006800F4003000285FD0606828
:101C000000285CD10120DBE700BF6068B0F5803FB1
:101C100006D1E748006840F48030E549086028E0D4
:101C2000606858B9E248006820F48030E0490860F4
:101C30000846006820F4802008601AE06068B0F56B
:101C4000A02F0BD1DA48006840F48020D849086002
:101C50000846006840F4803008600AE0D448006814
:101C600020F48030D24908600846006820F48020C3
:101C7000086000BF606888B1FFF7DEF9054606E03E
:101C8000FFF7DAF9401B642801D9032098E7C84818
:101C9000006800F400300028F2D010E0FFF7CCF923
:101CA000054606E0FFF7C8F9401B642801D9032068
:101CB00086E7BF48006800F400300028F2D12078A1
:101CC00000F00200022857D1B948406800F00C002B
:101CD00050B1B748406800F00C00082818D1B4484B
:101CE000406800F4803098B9B148006800F0020004
:101CF00020B12069012801D0012061E7AC480068CB
:101D000020F0F800616940EAC100A949086033E0A9
:101D10002069E8B10120A7490860FFF78DF9054661
:101D200006E0FFF789F9401B022801D9032047E7A5
:101D30009F48006800F002000028F2D09C4800682C
:101D400020F0F800616940EAC1009949086013E099
:101D5000002098490860FFF76FF9054606E0FFF795
:101D60006BF9401B022801D9032029E7904800683D
:101D700000F002000028F2D1207800F008000828C6
:101D80002DD1A069B8B101208B490860FFF754F943
:101D9000054606E0FFF750F9401B022801D9032051
:101DA0000EE78348406A00F002000028F2D00120CC
:101DB00001F0CCFC13E000207F490860FFF73CF9FC
:101DC000054606E0FFF738F9401B022801D9032039
:101DD000F6E67748406A00F002000028F2D1207849
:101DE00000F00400042873D100277148C06900F096
:101DF000805070B900BF6E48C06940F080506C4997
:101E0000C8610846C06900F08050009000BF00BF64
:101E100001276A48006800F48070B0B9674800681C
:101E200040F4807065490860FFF706F9054606E052
:101E3000FFF702F9401B642801D90320C0E65F4880
:101E4000006800F480700028F2D000BFE06801282C
:101E500006D15748006A40F001005549086227E062
:101E6000E06858B95248006A20F001005049086201
:101E70000846006A20F00400086219E0E0680528BE
:101E80000BD14B48006A40F00400494908620846FB
:101E9000006A40F0010008620AE04548006A20F04C
:101EA0000100434908620846006A20F00400086205
:101EB00000BFE068A0B1FFF7BFF8054609E0FFF7F3
:101EC000BBF8401B41F28831884202D9032077E6F3
:101ED00022E03748006A00F002000028EFD012E04C
:101EE000FFF7AAF8054608E0FFF7A6F8401B41F205
:101EF0008831884201D9032062E62D48006A00F04B
:101F000002000028F0D1012F05D12948C06920F036
:101F100080502749C86100BFE069C8B324484068C1
:101F200000F00C00082860D0E069022848D10020A9
:101F300020490866FFF780F8054606E0FFF77CF8C1
:101F4000401B022801D903203AE61948006800F036
:101F500000700028F2D1206AB0F5803F07D1144804
:101F6000406820F40030A168084311494860D4E972
:101F7000080108430E49496821F4741108430C49CB
:101F8000486001200B490866FFF756F8054607E050
:101F90003DE0FFF751F8401B022801D903200FE66E
:101FA0000348006800F000700028F2D02FE0000025
:101FB0000010024000004242800442420070004093
:101FC000002014490866FFF737F8054606E0FFF7DA
:101FD00033F8401B022801D90320F1E50E480068C0
:101FE00000F000700028F2D111E0E069012800D172
:101FF000E6E50948466806F48031206A814204D14A
:1020000006F47011606A814201D00120D8E50020F9
:10201000D6E5000000004242001002407047000078
:10202000F8B504462068466820688568C5F38010C6
:1020300048B905F0010030B1C6F3801018B1204650
:10204000216C8847F8BDC5F3400030B1C6F3C0101D
:1020500018B12046616C8847F4E7C5F3401018B901
:10206000C5F38010002871D0C6F3401000286DD051
:10207000C5F38010F0B194F8510003280ED0606DC4
:1020800040F00400606500BF002000902068C06838
:10209000009020688068009000BF0BE000BF002027
:1020A00000902068C068009020688068009000BFA1
:1020B00000BFC7E7C5F3401088B1606D40F0010074
:1020C000606500BF00200090206880680090206854
:1020D000006820F040002168086000BF00BF606D0C
:1020E00070B32068406820F0E0002168486001205B
:1020F00084F8510006F0020010B906F0010000B3A8
:102100002068406820F0030021684860E06C50B10E
:102110000F48E16C4863E06CFEF750FC18B1606D4D
:1021200040F040006065A06C50B10948A16C486364
:10213000A06CFEF743FC18B1606D40F04000606594
:1021400002E02046FFF76AFF7CE7FFE700BF79E780
:10215000593B000810B504460CB9012010BD606A57
:1021600000B900BF0021A16294F8510028B90020F5
:1021700084F85000204600F031F8022084F8510025
:102180002068006820F0400021680860D4E901015F
:102190000843E16808432169084361690843218BCA
:1021A00001F400710843E1690843216A0843A16A08
:1021B0000843216808600421A06901EA10402168F1
:1021C00048602068C06920F400602168C861002070
:1021D0006065012084F851000020BFE710B586B08B
:1021E0000446002002900390049005901E49206848
:1021F000884237D100BF1D48C06940F480401B4968
:10220000C8610846C06900F48040019000BF00BF6B
:1022100000BF0846806940F0080088610846806970
:1022200000F00800019000BF00BF4FF43040029062
:1022300000200390049002A90D48FEF767FD4FF4BB
:1022400080400290022003900320059002A90848D4
:10225000FEF75CFD002211462420FFF7A9F8242098
:10226000FFF796F806B010BD00380040001002409D
:10227000000C0140F0B504460E4615460027A06844
:1022800068B96068B0F5827F09D1042084F85100F4
:102290002B4632463146204600F098F8F0BD00BF8C
:1022A00094F85000012801D10220F7E7012084F8BA
:1022B000500000BF94F85100012801D0022733E0FC
:1022C00006B10DB901272FE0042084F85100002049
:1022D0006065A663A587E5872063A086E0866064C5
:1022E000E06810B11448206401E014482064A0683C
:1022F000B0F5004F05D12068006820F480402168C7
:1023000008602068406840F06000216848602068EC
:10231000006800F04000402805D02068006840F0C8
:1023200040002168086000BF00BF002084F8500012
:1023300000BF3846B2E700000D3C0008313C000801
:1023400070B505461A4806781A49286888422DD182
:10235000802E0CD116484478174810F814001749FD
:102360004870154830F814000012887019E0202ECB
:1023700017D113480088401C124908800C48407847
:1023800048800B48C0780A49897800EB01200D4944
:102390008880074840790649097900EB01200949FE
:1023A000C88006220549084800F072F870BD000098
:1023B000180000200038004080000020120000209B
:1023C0002E000020500000205C010020F0B50446E3
:1023D000002700BF94F85000012801D10220F0BD71
:1023E000012084F8500000BF94F851506668012D18
:1023F00008D0B6F5827F03D1A06808B9042D01D0BA
:10240000022735E009B102B10BB9012730E094F899
:102410005100042802D0052084F851000020606596
:102420002163A386E386A263A387E387E06820B1E4
:10243000134820641348606403E013482064134881
:1024400060642068406840F0E000D4F800C0CCF838
:1024500004002068006800F04000402807D0206891
:10246000006840F04000D4F800C0CCF8000000BF85
:1024700000BF002084F8500000BF3846AFE70000DE
:10248000CD380008353900080139000869390008DD
:1024900030B50346002400BF93F85000012801D155
:1024A000022030BD012083F8500000BF01B10AB9FD
:1024B000012435E093F85100012801D002242FE0D7
:1024C000032083F851000020586519639A86DA8644
:1024D00098639887D8871864D86810B114485864EE
:1024E00001E0144858649868B0F5004F05D11868A9
:1024F000006840F480401D6828601868406840F01B
:10250000A0001D6868601868006800F0400040285E
:1025100005D01868006840F040001D68286000BFC2
:1025200000BF002083F8500000BF2046B9E700003C
:10253000553C0008793C000810B504460449206861
:10254000884204D1062203490348FFF793FE10BDD9
:1025500000380040180000205C010020704770B572
:1025600004462546681EB0F1807F01D301200FE0AC
:10257000681E4FF0E02148610F214FF0FF3002F05C
:1025800079FA00204FF0E0218861072008610020DF
:1025900070BD7047704710B5024600BF92F83C000E
:1025A000012801D1022010BD012082F83C0000BFAB
:1025B000022082F83D00106843681068846823F0A8
:1025C00070030868034324F08004486804431068DB
:1025D000436010688460012082F83D0000BF002045
:1025E00082F83C0000BF00BFDDE710B504460CB91F
:1025F000012010BD94F83D0028B9002084F83C006B
:10260000204600F00DF8022084F83D00211D2068CE
:1026100001F074FC012084F83D000020E9E700008F
:1026200038B504462068B0F1804F15D100BF0B4883
:10263000C06940F001000949C8610846C06900F05E
:102640000100009000BF00BF002203211C20FEF704
:10265000AFFE1C20FEF79CFE38BD000000100240BB
:1026600001460868C06840F001000B68D86008683F
:10267000806800F00702062A05D00868006840F06C
:1026800001000B681860002070472DE9F0410446F6
:102690000D4600BF94F83C00012802D10220BDE89D
:1026A000F081012084F83C0000BF022084F83D0046
:1026B0002068866826F0770626F47F4620688660C4
:1026C0002868502833D00CDC202850D004DC0028A7
:1026D0004BD0102851D149E0302849D040284CD166
:1026E00039E060282DD0702807D0B0F5805F03D086
:1026F000B0F5005F41D10DE040E0D5E902136A6812
:10270000206801F046FC2068866846F0770620685D
:10271000866033E0D5E902136A68206801F039FC6D
:102720002068806840F480402168886026E0EA687C
:102730006968206801F0FEFC5021206801F034FC3B
:102740001CE0EA686968206801F007FD60212068E4
:1027500001F02AFC12E0EA686968206801F0EAFCEE
:102760004021206801F020FC08E000BF00BF00BF4E
:102770002968206801F018FC00E000BF00BF0120BC
:1027800084F83D0000BF002084F83C0000BF00BF7B
:1027900085E7704710B5044620680069C0F3400023
:1027A000D8B12068C068C0F34000B0B16FF002003B
:1027B00021680861012020772068806900F003000B
:1027C00018B12046FFF7E5FF05E0204600F0DAF8F3
:1027D000204600F099F90020207720680069C0F3B6
:1027E0008000D8B12068C068C0F38000B0B16FF03D
:1027F000040021680861022020772068806900F4C5
:10280000407018B12046FFF7C4FF05E0204600F0F5
:10281000B9F8204600F078F9002020772068006998
:10282000C0F3C000D8B12068C068C0F3C000B0B128
:102830006FF0080021680861042020772068C069D3
:1028400000F0030018B12046FFF7A3FF05E0204683
:1028500000F098F8204600F057F900202077206813
:102860000069C0F30010D8B12068C068C0F3001040
:10287000B0B16FF01000216808610820207720684F
:10288000C06900F4407018B12046FFF782FF05E0F0
:10289000204600F077F8204600F036F90020207737
:1028A0002068006900F0010058B12068C06800F09D
:1028B000010030B16FF0010021680861204600F08E
:1028C0004BF920680069C0F3C01058B12068C06897
:1028D000C0F3C01030B16FF080002168086120465D
:1028E000FFF757FE20680069C0F3801058B12068D8
:1028F000C068C0F3801030B16FF0400021680861FB
:10290000204600F034F920680069C0F3401058B147
:102910002068C068C0F3401030B16FF0200021681B
:1029200008612046FFF736FE10BD000010B586B0E6
:102930000446002002900390049005900E49206800
:10294000884216D100BF0D48806940F004000B4951
:1029500088610846806900F00400019000BF00BF54
:10296000C020029002200390059002A90448FEF7BF
:10297000CDF906B010BD0000000400400010024078
:1029800000080140704770B504460D46164600BF6A
:1029900094F83C00012801D1022070BD012084F888
:1029A0003C0000BF022084F83D0036B1042E1BD04D
:1029B000082E31D00C2E5ED145E02946206801F06A
:1029C000FDFA2068806940F008002168886120686D
:1029D000806920F004002168886120688069296985
:1029E00008432168886147E02946206801F016FB0A
:1029F0002068806940F400602168886120688069EF
:102A000020F480602168886120688069296940EA33
:102A10000120216888612FE02946206801F032FBFF
:102A20002068C06940F008002168C8612068C0695A
:102A300020F004002168C8612068C0692969084342
:102A40002168C86118E02946206801F04FFB206822
:102A5000C06940F400602168C8612068C06920F442
:102A600080602168C8612068C069296940EA012046
:102A70002168C86100E000BF00BF012084F83D006C
:102A800000BF002084F83C0000BF00BF85E710B500
:102A900004460CB9012010BD94F83D0028B900206F
:102AA00084F83C00204600F00DF8022084F83D0038
:102AB000211D206801F022FA012084F83D00002049
:102AC000E9E7000038B504460D492068884215D171
:102AD00000BF0C48C06940F002000A49C8610846BE
:102AE000C06900F00200009000BF00BF0022032177
:102AF0001D20FEF75DFC1D20FEF74AFC38BD0000DE
:102B000000040040001002407047000070B5044609
:102B10000E4601223146206801F02AFA0D4920684C
:102B2000884201D1012000E0002028B12068406CDB
:102B300040F40040216848642068806800F0070580
:102B4000062D05D02068006840F00100216808606B
:102B5000002070BD002C014010B504462068B0F183
:102B6000804F03D100F060FE00F020FE10BD7047E2
:102B7000704700002DE9F04704462068056820688A
:102B8000C668206847694FF00008C14605F00F0885
:102B9000B8F1000F0AD105F0200038B106F020008E
:102BA00020B1204601F017FBBDE8F087B8F1000F17
:102BB0006DD007F0010018B906F49070002866D0B7
:102BC00005F0010030B106F4807018B1E06B40F000
:102BD0000100E06305F0040030B107F0010018B116
:102BE000E06B40F00200E06305F0020030B107F056
:102BF000010018B1E06B40F00400E06305F008004C
:102C000030B107F0010018B1E06B40F00800E0635C
:102C1000E06B68B305F0200028B106F0200010B189
:102C2000204601F0D8FA20684069C0F38019E06BB3
:102C300000F0080010B9B9F1000F22D0204601F0D1
:102C4000AAFA2068406900F04000B0B120684069ED
:102C500020F0400021684861606B50B11748616BFB
:102C60004863606BFDF7AAFE10B1606B416B88474B
:102C70000CE02046FFF77CFF08E02046FFF778FFD6
:102C800004E02046FFF774FF0020E0638CE705F0C6
:102C9000800030B106F0800018B1204601F0BEFB84
:102CA00082E705F0400030B106F0400018B1204640
:102CB00001F081FA78E700BF76E700008341000861
:102CC00010B504460CB9012010BDA06900B100E0A8
:102CD00000BF94F8390028B9002084F83800204655
:102CE00000F028F8242084F839002068C06820F417
:102CF00000502168C860204601F0C0FA20680069D1
:102D000020F49040216808612068406920F02A0082
:102D1000216848612068C06840F400502168C8609C
:102D20000020E063202084F8390084F83A00002075
:102D3000CAE7000010B586B0044600200290039058
:102D4000049005901E492068884237D100BF1D4875
:102D5000806940F480401B4988610846806900F41E
:102D60008040019000BF00BF00BF0846806940F06E
:102D7000040088610846806900F00400019000BFEB
:102D800000BF48150290022003900320059002A97D
:102D90000D48FDF7BBFF4FF48060029000200390C8
:102DA0000120049002A90848FDF7B0FF002201218C
:102DB0002520FEF7FDFA2520FEF7EAFA06B010BD41
:102DC0000038014000100240000801402DE9F8439E
:102DD00004460D4616461F464FF0000994F83A0087
:102DE000202860D105B116B90120BDE8F88300BFE5
:102DF00094F83800012801D10220F6E7012084F878
:102E0000380000BF0020E063222084F83A00FEF77B
:102E100013F98146A685E68539E0E08D401EE08500
:102E2000A068B0F5805F1BD14B46002220212046D0
:102E3000009701F027FB08B10320D6E7A8462069D8
:102E400038B920684068C0F30800A8F80000AD1C3D
:102E50001DE020684068C0B2A8F800006D1C16E0B4
:102E60004B46002220212046009701F00BFB08B1C1
:102E70000320BAE7206920B92068406805F8010BF3
:102E800005E02068406800F07F0005F8010BE08D48
:102E90000028C2D1202084F83A0000BF002084F826
:102EA000380000BFA1E702209FE710B5034693F862
:102EB0003A0020282FD101B10AB9012010BD00BF6E
:102EC00093F83800012801D10220F7E7012083F8A8
:102ED000380000BF99629A85DA850020D8632220E5
:102EE00083F83A0000BF002083F8380000BF18685C
:102EF000C06840F480701C68E0601868406940F069
:102F000001001C6860611868C06840F020001C68FF
:102F1000E0600020D2E70220D0E770472DE9F843B7
:102F200004460D4616461F464FF0000994F8390036
:102F300020285CD105B116B90120BDE8F88300BF97
:102F400094F83800012801D10220F6E7012084F826
:102F5000380000BF0020E063212084F83900FEF72C
:102F60006BF88146A684E6842BE0E08C401EE0846A
:102F7000A068B0F5805F16D14B4600228021204624
:102F8000009701F07FFA08B10320D6E7A846B8F809
:102F90000000C0F3080021684860206908B9AD1C32
:102FA0000FE06D1C0DE04B4600228021204600976B
:102FB00001F068FA08B10320BFE715F8010B21689A
:102FC0004860E08C0028D0D14B46002240212046AA
:102FD000009701F057FA08B10320AEE7202084F8EB
:102FE000390000BF002084F8380000BFA5E70220A8
:102FF000A3E7000010B50446082202490248FFF783
:1030000054FF10BD260000203402002000E070476D
:10301000FDE7000008B50020074909880091BDF8C8
:103020000010064A1288891A012900D10120BDF832
:103030000010024A118008BD500000202E00002020
:103040000EB50020009001900290234823490860AB
:1030500081152248816001210173002101754FF41F
:103060006021C16100201D49486004211B480161A5
:10307000FDF7E0FA08B1FDF75EF9002000900120AD
:1030800001900720029069461448FDF757F908B1EE
:10309000FDF751F9012000900220019069460F4888
:1030A000FDF74CF908B1FDF746F902200090032026
:1030B000019069460948FDF741F908B1FDF73BF970
:1030C000032000900420019069460448FDF736F97A
:1030D00008B1FDF730F90EBD002401409400002036
:1030E00008B500BF0A48406940F00100084948613E
:1030F0000846406900F00100009000BF00BF0022B8
:1031000002210B20FEF754F90B20FEF741F908BD10
:103110000010024000B585B000200190029003909D
:10312000049000BF2848806940F01000264988615B
:103130000846806900F01000009000BF00BF00BF8B
:103140000846806940F0200088610846806900F0E8
:103150002000009000BF00BF00BF0846806940F01B
:10316000040088610846806900F00400009000BFF8
:1031700000BF00BF0846806940F00800886108462B
:10318000806900F00800009000BF00BF0022C91451
:103190000E48FDF74BFF4FF40060019001200290B4
:1031A000002003900220049001A90848FDF7AEFD1D
:1031B0004FF44070019002200290049001A903484E
:1031C000FDF7A4FD05B000BD00100240000C014059
:1031D00010B50B480B4908600B48486000210948AE
:1031E0008160C1604FF480410161002141618161D2
:1031F000C1610162FDF726FF08B1FDF79CF810BD23
:103200000054004008010020A086010010B50D48C0
:103210000D4908600020486000210B488160C160B2
:103220000161416181613821C16100210162416216
:1032300081620A21C162FEF78DFF08B1FDF77BF8BC
:1032400010BD0000003800405C01002000B587B0D0
:1032500000200390049005900690019002904FF09A
:103260008040144908604FF4F07048600021114814
:1032700081604FF47A71C160002101618161FFF7C3
:10328000B4F908B1FDF757F84FF48050039003A943
:103290000848FFF7FAF908B1FDF74DF80020019052
:1032A000029001A90348FFF776F908B1FDF743F84A
:1032B00007B000BDB401002000B589B00020079020
:1032C00008901C216846FCF746FF1C481C49086012
:1032D0000020486000211A48816040F6FF71C160FB
:1032E000002101618161FFF7D2FB08B1FDF723F8EE
:1032F00000200790089007A91148FFF74CF908B182
:10330000FDF719F860200090012001900020029044
:103310000490002269460A48FFF735FB08B1FDF723
:103320000AF8042269460648FFF72DFB08B1FDF7AD
:1033300002F80348FFF7FAFA09B000BD00040040A4
:10334000F401002010B50B480B4908604FF4E13040
:103350004860002108488160C16001610C21416121
:1033600000218161C161FFF7ABFC08B1FCF7E3FF0D
:1033700010BD0000003801403402002010B509489B
:10338000094908600820486002210748816000213F
:103390008161C1610162FEF768F908B1FCF7CBFFFA
:1033A00010BD0000005C00407402002000BFFEE77A
:1033B00070472DE9F0470546BDE12868B0F8449014
:1033C00009F00F06002E7ED109F01000B0BB00BF3F
:1033D0002968098848F60F7201EA020040F40041AA
:1033E0002A68118000BF05F128042868B0F8501041
:1033F000207801EBC000801C296801F5806131F85C
:103400001000C0F30900E061E1696069084460618F
:1034100000212846FEF71EF895F824000028CBD09E
:10342000A0690028C8D195F8240040F080002968E0
:10343000A1F84C00002085F824007CE1FFE705F5A9
:1034400094742868B0F8008008F4006030B32868ED
:10345000B0F85010207801EBC000801D296801F5FC
:10346000806131F81000C0F30900E061A18B8BB2DC
:10347000E28805F50C71286801F0A2FA00BF2968FE
:10348000098840F68F7201EA020040F080012A6844
:10349000118000BF2846FEF7BFF94CE108F4004058
:1034A000002889D000BF2968098840F68F7201EA98
:1034B000020040F080012A68118000BF2868B0F83F
:1034C0005010207800E069E001EBC000801D296801
:1034D00001F5806131F81000C0F30900E061E06996
:1034E00090B1606980B1B4F81CC01FFA8CF3E28817
:1034F0006169286801F064FAE16960690844606103
:1035000000212846FDF7A7FF00BF2A682968B1F807
:1035100050100A4402F20C41084600BF236953B917
:10352000038848F2FF3C03EA0C030380038843F45A
:10353000004303801EE023693E2B0DD800BF2369A2
:103540005908237C03F0010303B1491C4FF6FF73B4
:1035500003EA812303800DE000BF23695909237C1E
:1035600003F01F0303B9491E4FF4004343EA8123CC
:10357000038000BF00BF00BF00BF296809884BF669
:103580008F7201EA020080F4805080F4005040F411
:10359000004141F080012A681180CCE07100286868
:1035A00030F8118008F4004000287ED000BF72007F
:1035B000296831F8121040F68F7201EA020040F0DB
:1035C000800173002A6822F8131000BF05F594707B
:1035D00000EB4614207BB0B92868B0F85010207872
:1035E00001EBC000801D296801F5806131F81000F1
:1035F000C0F30907002F4FD0E28861693B46286875
:1036000001F0DEF948E021784900286830F811001F
:1036100000F48040A8B12868B0F85010207801EB81
:10362000C000801C296801F5806131F81000C0F3EA
:103630000907DFB1228961693B46286801F0C0F9BA
:1036400014E02868B0F85010207801EBC000801D0D
:10365000296801F5806131F81000C0F309072FB126
:10366000628961693B46286801F0AAF900BF00BF82
:1036700022785200296831F8121048F68F7201EA58
:10368000020040F4004141F0C00123785B002A6849
:1036900022F8131000BF00BFE0693844E0616069A0
:1036A00038446061A06920B100E00DE02069B842B3
:1036B00004D921782846FDF7CEFE05E0217828467A
:1036C000D4E90523FDF7C8FE08F0800060B305F1DA
:1036D000280000EB461400BF7200296831F8121070
:1036E00048F60F7201EA020040F4004173002A68B4
:1036F00022F8131000BF2868B0F85010207801EBB2
:10370000C000801C296801F5806131F81000C0F309
:103710000900E061E169606908446061A06920B95D
:1037200021782846FDF796FE05E021782846D4E961
:103730000523FDF7B5FE2868B0F8440000F400400A
:1037400000287FF43AAEBDE8F087704708B5084915
:103750000968C9084FF47A72B1FBF2F14143009154
:1037600000BF00BF00994A1E00920029F9D108BD90
:103770004C0000200A4800880A4988800848408890
:10378000C8800748808888810548C088C881064865
:103790000068806B488104480068406B088270476D
:1037A0000800002080000020F401002000210022F9
:1037B0001A48006830B90020194B1880194B1B6853
:1037C000586329E0154B1B681A88154B1B88991AFA
:1037D000144B1B68586B142905DD40F6F5739842AD
:1037E00016DA0A3014E011F1140F03DA0A280FDD9B
:1037F0000A380DE011F1020F03DA002808DD401E3F
:1038000006E0002904DD40F6F573984200DA401C1A
:10381000044B1B68586300BF70470000380000204D
:103820003E000020F4010020002100221A48006818
:1038300030B90020194B1880194B1B68986329E098
:10384000154B1B681A88154B1B88991A144B1B685B
:10385000986B142905DD40F6F573984216DA0A30A4
:1038600014E011F1140F03DA0A280FDD0A380DE015
:1038700011F1020F03DA002808DD401E06E00029DE
:1038800004DD40F6F573984200DA401C044B1B68D7
:10389000986300BF70470000340000203C00002007
:1038A000F401002010B50848FEF7BAFB0648806B0B
:1038B0000078802804D00448806B0078202800D14C
:1038C00010BD00BFFCE700005C01002010B50446FD
:1038D0002068C068A16B0880A06B801CA063E08F8B
:1038E000401EE087E08F50B92068406820F040001B
:1038F00021684860E08E10B9204600F04FF810BDF6
:1039000010B504462068007BA16B0870A06B401CBA
:10391000A063E08F401EE087E08F50B920684068C8
:1039200020F0600021684860E08E10B9204600F069
:1039300035F810BD10B50446206B00882168C860BA
:10394000206B801C2063E08E401EE086E08E50B924
:103950002068406820F0800021684860E08F10B93E
:10396000204600F01BF810BD10B50446206B00780F
:1039700021680873206B401C2063E08E401EE086A7
:10398000E08E50B92068406820F0800021684860CF
:10399000E08F10B9204600F001F810BD7CB5044658
:1039A0002C4800681821B0FBF1F04FF47A71B0FB9D
:1039B000F1F0642148430190FDF73EFB0546206885
:1039C000406820F020002168486000BF019820B9BD
:1039D000606D40F02000606508E00198401E019095
:1039E0002068806800F002000028EFD000BF2A465F
:1039F0006421204600F0F6F818B1606D40F0200018
:103A00006065A06850B900BF002000902068C068C1
:103A1000009020688068009000BF00BF606D88B98A
:103A200094F85100042806D1012084F85100204662
:103A3000FEF786FC0CE0012084F851002046FEF7DA
:103A40008DFD05E0012084F851002046FEF7E6FADE
:103A50007CBD00004C00002038B50446206840685A
:103A600020F0600021684860FDF7E6FA05462A4626
:103A70006421204600F07AF818B1606D40F0200013
:103A80006065A06850B900BF002000902068C06841
:103A9000009020688068009000BF00BF012084F87B
:103AA0005100606D18B92046FEF74AFC02E020463E
:103AB000FEF7B4FA38BD00007CB50446254800681E
:103AC0001821B0FBF1F04FF47A71B0FBF1F06421F2
:103AD00048430190FDF7B0FA054600BF019820B9B0
:103AE000606D40F02000606508E00198401E019084
:103AF0002068806800F002000028EFD000BF206836
:103B0000406820F0A000216848602A4664212046D1
:103B100000F068F818B1606D40F020006065A068A2
:103B200050B900BF002000902068C0680090206855
:103B30008068009000BF00BF012084F85100606DD4
:103B400018B12046FEF76AFA02E02046FEF7F4FCC0
:103B50007CBD00004C00002070B505466C6A00205A
:103B6000E087E0862046FEF759FA70BDF8B50446B6
:103B70000E4615466068B0F5827F0DD1A068B0F59D
:103B8000004F03D0A068B0F5806F05D120680068B1
:103B900020F04000216808606068B0F5827F11D194
:103BA000A068B0F5806F0DD1334600220121204678
:103BB000009500F073F898B1606D40F020006065EA
:103BC0000320F8BD3346002280212046009500F0F6
:103BD00065F828B1606D40F0200060650320F0E7D3
:103BE0000020EEE7F8B504460D4616462B460022A7
:103BF00080212046009600F051F828B1606D40F019
:103C0000200060650320F8BD0020FCE710B50446E5
:103C10002068C068A16B0880A06B801CA063E08F47
:103C2000401EE087E08F10B92046FFF715FF10BD5A
:103C300010B504462068007BA16B0870A06B401C87
:103C4000A063E08F401EE087E08F10B92046FFF7A9
:103C500003FF10BD10B50446206B00882168C860C2
:103C6000206B801C2063E08E401EE086E08E10B941
:103C70002046FFF721FF10BD10B50446206B0078E9
:103C800021680873206B401C2063E08E401EE08694
:103C9000E08E10B92046FFF70FFF10BD2DE9F0416F
:103CA00004460E4617461D46DDF818803EE0681CA7
:103CB000D8B3FDF7C1F9A0EB0800A84200D2A5BB1C
:103CC0002068406820F0E000216848606068B0F536
:103CD000827F0DD1A068B0F5004F03D0A068B0F589
:103CE000806F05D12068006820F0400021680860DE
:103CF000A06AB0F5005F0DD100BF2068006820F415
:103D00000050216808602068006840F40050216875
:103D1000086000BF012084F8510000BF002084F833
:103D2000500000BF0320BDE8F081FFE720688068F5
:103D30003040B04201D1012000E00020B842B6D1AD
:103D40000020F0E7704710B5FDF792FA10BD00B5FE
:103D500093B0282109A8FCF7FEF9142104A8FCF768
:103D6000FAF9002000900190029003900120099040
:103D700000040A9000200B9001200D90022010906A
:103D8000C10311914FF4E011129109A8FDF714FF3E
:103D900008B1FCF7D0FA0F20049002200590002013
:103DA00006904FF4806007900890022104A8FDF768
:103DB000CDFD08B1FCF7BFFA122000904FF400408F
:103DC0000290002003906846FDF728FD08B1FCF73B
:103DD000B2FA13B000BD00001148006840F00100C5
:103DE0000F490860084640680E4908400C49486081
:103DF000084600680C490840094908600846006800
:103E000020F4802008600846406820F4FE004860E6
:103E10004FF41F008860C803044908607047000021
:103E2000001002400000FFF8FFFFF6FE08ED00E082
:103E300010B5092844D2DFE800F005060C131A2457
:103E40002B3239003CE01F4B1F4C23601F4B198065
:103E500036E01C4B9B1C1C4C23601C4B19802FE034
:103E6000184B1B1D184C2360184B198028E0154B6C
:103E70009B1D154C2360154B1980154B1B689963CE
:103E80001EE0104B9B1E134C2360104B198017E053
:103E90000C4B08330F4C23600F4B198010E0094B7B
:103EA0000A330C4C23600C4B198009E0054B0C3392
:103EB000084C2360084B1980054B1B68996300BFB1
:103EC00000BF10BD84000020340000203C00002012
:103ED000F4010020380000203E00002010B5024808
:103EE000FEF758FC10BD0000B401002010B50248D8
:103EF000FEF750FC10BD0000F401002010B5026870
:103F0000184B984208D0B0F1804F05D0164B98421C
:103F100002D0164B984203D122F070024B681A432C
:103F2000104B984208D0B0F1804F05D00E4B98420C
:103F300002D00E4B984203D122F44072CB681A4350
:103F400022F080034C6943EA040202608B68C3627A
:103F50000B688362034B984201D10B690363012311
:103F6000436110BD002C01400004004000080040E7
:103F700030B501F01F05012404FA05F3046A9C43DF
:103F80000462046A01F01F0502FA05F52C4304627D
:103F900030BD30B50C46816821F47F4142EA0325EB
:103FA00025432943816030BD0A46816821F07001B4
:103FB00042F00703194381607047000030B5056A7D
:103FC00025F001050562026A4368846924F07004E3
:103FD00024F003040D682C4322F002028D682A436A
:103FE0000D4DA84206D100BF22F00802CD682A4339
:103FF00022F00402084DA84207D123F4807323F471
:1040000000734D692B438D692B43436084614D6878
:104010004563026230BD0000002C014030B5056AE6
:1040200025F010050562026A4368846924F4E044BF
:1040300024F440740D6844EA052422F020028D68BF
:1040400042EA05120E4DA84207D100BF22F08002BD
:10405000CD6842EA051222F04002094DA84209D17A
:1040600023F4806323F400634D6943EA85038D697B
:1040700043EA8503436084614D688563026230BD15
:10408000002C014030B5056A25F480750562026A8E
:104090004368C46924F0700424F003040D682C43C1
:1040A00022F400728D6842EA05220F4DA84207D122
:1040B00000BF22F40062CD6842EA052222F4806249
:1040C000094DA84209D123F4805323F400534D69CC
:1040D00043EA05138D6943EA05134360C4614D68E3
:1040E000C563026230BD0000002C014030B5056A96
:1040F00025F480550562036A4468C26922F4E042EF
:1041000022F440720D6842EA052223F400538D68C0
:1041100043EA0533064DA84204D124F480444D6996
:1041200044EA85144460C2614D680564036230BD91
:10413000002C014030B50B461446026A056A25F092
:1041400001050562816921F0F00141EA041122F0C4
:104150000A021A438161026230BD30B50B46144633
:10416000056A25F0100505628169026A21F4704133
:1041700041EA043122F0A00242EA031281610262A4
:1041800030BD70B505466C6A0020E085E0842046AD
:10419000FEF7EEFC70BD0168C96821F490710268F9
:1041A000D1600168496921F0010102685161202153
:1041B00080F83A10704710B504462068C06820F0B7
:1041C00040002168C860202084F839002046FEF7AE
:1041D00011FF002010BD70B5044694F83A00222863
:1041E0004AD1A068B0F5805F13D1A56A206940B9B3
:1041F00020684068C0F308002880A06A801CA06284
:1042000019E020684068C0B22880A06A401CA06203
:1042100011E0206938B920684068C1B2A26A501C18
:10422000A062117007E02068406800F07F01A26A78
:10423000501CA0621170E08D401E80B2E085C8B9AC
:104240002068C06820F020002168C8602068C0682D
:1042500020F480702168C8602068406920F0010067
:1042600021684861202084F83A002046FEF755FE78
:10427000002070BD0020FCE70220FAE770B504467C
:104280002168096921F44051E268114322681161F3
:104290002269A1681143626941EA02052168C9687F
:1042A00041F20C62914329432268D1602168496937
:1042B00021F44071A269114322685161564A216874
:1042C000914254D1FDF71EFC00EBC00101EB00113F
:1042D00062689200B1FBF2F100EBC00202EB001247
:1042E00063689B00B2FBF3F26423B2FBF3F202EBD0
:1042F000C20303EB0212A1EB8201322202EB011195
:104300006422B1FBF2F101F0F00100EBC00202EB1C
:10431000001263689B00B2FBF3F26423B2FBF3F27A
:1043200001EB021200EBC00101EB001163689B007E
:10433000B1FBF3F100EBC00303EB00136668B600BA
:10434000B3FBF6F36426B3FBF6F303EBC30606EB0D
:104350000313A1EB8301322303EB01116423B1FBAF
:10436000F3F101F00F0111442268916053E0FDF771
:10437000B9FB00EBC00101EB001162689200B1FBD8
:10438000F2F100EBC00202EB001263689B00B2FB8B
:10439000F3F26423B2FBF3F202EBC20303EB02126B
:1043A000A1EB8201322202EB01116422B1FBF2F196
:1043B00001F0F00100EBC00202EB001263689B0009
:1043C000B2FBF3F26423B2FBF3F201EB021200EB57
:1043D000C00101EB001163689B00B1FBF3F100EB3E
:1043E000C00303EB00136668B600B3FBF6F3642664
:1043F000B3FBF6F303EBC30606EB0313A1EB830158
:10440000322303EB01116423B1FBF3F101F00F013F
:1044100011442268916070BD00380140014691F856
:10442000390021282CD18868B0F5805F0FD10A6A45
:104430001088C0F308000B685860086918B9086A4A
:10444000801C086209E0086A401C086205E00B6AEB
:10445000581C086218780B685860C88C401E80B2DF
:10446000C88458B90868C06820F080000B68D8601C
:104470000868C06840F040000B68D86000207047B2
:104480000220FCE72DE9F04104460D461746984608
:10449000069E21E0701CF8B12EB1FCF7CDFDA0EB1B
:1044A0000800B04218D92068C06820F4D070216894
:1044B000C8602068406920F0010021684861202020
:1044C00084F8390084F83A0000BF002084F83800EE
:1044D00000BF0320BDE8F081206800682840A842A2
:1044E00001D1012000E00020B842D3D00020F1E744
:1044F00010B50248FEF73EFB10BD0000340200205C
:1045000010B50446002010BD01460020704710B5CC
:104510000446012024F8400F00202080A080208243
:10452000403C204600F036FA002010BD01464FF412
:104530003F42B1F840009043A1F84000002070478E
:104540002DE9F04306460C466078012871D12169B7
:10455000A069884204D92569A069401BA06102E0D6
:10456000A5690020A061207BA0B9ABB2E2883046EB
:10457000616900F054FA00BF3046B6F8502010448C
:104580002278022303EBC20200F5806303EB4201B1
:104590000D80E2E02078400036F8100000F0400086
:1045A00000285AD000BF3346607880BB00BF324637
:1045B000B6F850100A4421784FF0060808EBC10104
:1045C00002F5806808EB4101084600BF75B9B0F8F4
:1045D000008048F2FF3908EA0908A0F80080B0F826
:1045E000008048F40048A0F8008020E03E2D0FD85D
:1045F00000BF690805F00108B8F1000F00D0491CA0
:104600004FF6FF7808EA8128A0F800800FE011E05B
:1046100000BF690905F01F08B8F1000F00D1491E5D
:104620004FF4004848EA8128A0F8008000BF00BF8E
:1046300010E0A8E0607801280CD1B6F850000344DF
:104640002078062101EBC00003F5806101EB400CEE
:10465000ACF8005000BF67894EE000BF6078B0BB87
:1046600000BF3246B6F850100A442178022303EB0B
:10467000C10102F5806303EB4101084600BF55B953
:10468000038848F2FF3C03EA0C030380038843F4E9
:104690000043038019E03E2D0BD800BF690805F0E8
:1046A000010303B1491C4FF6FF7303EA8123038022
:1046B0000BE000BF690905F01F0303B9491E4FF461
:1046C000004343EA8123038000BF00BF12E0FFE7FD
:1046D000607801280ED100BF3046B6F85020104453
:1046E0002278022303EBC20200F5806303EB420150
:1046F0000D8000BF00BF2789ABB23A4630466169E2
:1047000000F08DF900BF607888B900BF21784900BA
:1047100036F8111048F68F7201EA020040F40041A9
:1047200041F0C0012278520026F8121014E060789F
:10473000012811D100BF2178490036F8111048F640
:104740008F7201EA020040F4004141F48141227875
:10475000520026F8121000BF00BF00BF21784900A8
:1047600036F8111048F6BF7201EA020080F010001E
:1047700080F0200040F4004141F080012278520096
:1047800026F8121003E12169A069884204D925693D
:10479000A069401BA06102E0A5690020A061207B08
:1047A000B0BB00BF3246B6F850100A442178062349
:1047B00003EBC10102F5806303EB4101084600BF32
:1047C00055B9038848F2FF3C03EA0C0303800388D1
:1047D00043F40043038019E03E2D0BD800BF690865
:1047E00005F0010303B1491C4FF6FF7303EA81236F
:1047F00003800BE000BF690905F01F0303B9491EE0
:104800004FF4004343EA8123038000BF00BFA8E0C8
:10481000FFE700BF00BF6078B0BB00BF3246B6F80C
:1048200050100A442178022303EBC10102F5806392
:1048300003EB4101084600BF55B9038848F2FF3C2D
:1048400003EA0C030380038843F40043038019E068
:104850003E2D0BD800BF690805F0010303B1491CC8
:104860004FF6FF7303EA812303800BE000BF690961
:1048700005F01F0303B9491E4FF4004343EA8123A7
:10488000038000BF00BF12E0FFE7607801280ED16F
:1048900000BF3046B6F8502010442278022303EBC4
:1048A000C20200F5806303EB42010D8000BF00BF30
:1048B00000BF3346607880BB00BF3246B6F8501068
:1048C0000A4421784FF0060808EBC10102F5806820
:1048D00008EB4101084600BF75B9B0F8008048F206
:1048E000FF3908EA0908A0F80080B0F8008048F411
:1048F0000048A0F8008020E03E2D0FD800BF6908D6
:1049000005F00108B8F1000F00D0491C4FF6FF7800
:1049100008EA8128A0F800800FE010E000BF6909D4
:1049200005F01F08B8F1000F00D1491E4FF40048F0
:1049300048EA8128A0F8008000BF00BF0FE060783F
:1049400001280CD1B6F8500003442078062101EB71
:10495000C00003F5806101EB400CACF8005000BFD3
:1049600000BF00BF2178490036F811104BF68F7256
:1049700001EA020080F4805080F4005040F40041CD
:1049800041F080012278520026F8121000BF00206A
:10499000BDE8F08301464FF43F42B1F840001043B8
:1049A000A1F840000020704710B50248FCF79DFDBB
:1049B00010BD0000740200200146B1F844007047A9
:1049C0002DE9F04304460E4615464FEA530CA04627
:1049D000304608F5806909EB450267460AE0118810
:1049E000921C0170401C4FEA112980F80090401C75
:1049F000921C7F1E002FF2D103F00109B9F1000FC4
:104A000001D011880170BDE8F08302460020704794
:104A1000024611B98020A2F84C00002070472DE911
:104A2000F04704460D461E4606F1010A4FEA5A08B1
:104A3000A146284609F5806A0AEB420347460BE087
:104A400090F800C0401C90F800A04CEA0A211980A0
:104A50009B1C9B1C401C7F1E002FF1D1BDE8F087E2
:104A600000BFFEE702480068C0F302207047000064
:104A70000CED00E010B5002804DB0A07130E054A10
:104A8000135406E00A07140E034A00F00F031B1F1D
:104A9000D45410BD00E400E018ED00E002E008C8C6
:104AA000121F08C1002AFAD170477047002001E0A8
:104AB00001C1121F002AFBD17047000070B501230D
:104AC000082215491548FEF729FA1423082214492B
:104AD0001248FEF77BF912480078C5281AD1104811
:104AE0004078082816D10E48C079C52812D10C4844
:104AF000807805020A48C078054409480079040412
:104B00000748407904EB00240548807904440549AE
:104B10000C814D8070BD00001E000020340200207A
:104B20002600002080000020FCF7AEFBFFF70FF905
:104B3000FEF7F0FAFEF7D4FAFEF782FAFEF748FB2A
:104B4000FEF71CFCFEF7B8FBFEF760FBFEF77EFBF2
:104B5000FEF7F8FB00201A490968486318490968FC
:104B6000886304211648FDF7D1FF00211448FDF7A2
:104B7000CDFF042213491448FBF760FE06221349B7
:104B80001348FDF777FB062212491148FDF780FC18
:104B90001148FDF765FD12E0FEF7ECFDFFF78EFF13
:104BA000FEF738FA30B10D4BDA8899885B88D8B2B5
:104BB000FFF73EF9062205490548FDF75BFBEBE7E9
:104BC000F4010020000000209400002018000020C4
:104BD0005C01002012000020B401002050000020E1
:104BE000000000000000000001020304060708099D
:104BF0000000000001020304184C0008000000201F
:104C0000700000009C4A0008884C000870000020DA
:104C100070080000AC4A000800000000000000001E
:104C20000000000000000000000000000000000084
:104C3000000000000000C58080808080808000002F
:104C40000000000000000000000000000000000064
:104C50000000000000000000000000001000000044
:104C6000010000000024F40000000000000000002B
:104C70000000000000000000000000000000000034
:084C800000000000000000002C
:04000005080000ED02
:00000001FF
