:020000040800F2
:100000001809002001010008E9340008C330000885
:10001000E5340008ED070008914B000800000000DF
:10002000000000000000000000000000B13D0008DA
:100030002D08000800000000FD380008B33D00084E
:100040001B0100081B0100081B0100081B01000820
:100050001B0100081B0100081B0100081B01000810
:100060001B0100081B0100081B010008F107000824
:100070001B0100081B0100081B0100081B010008F0
:100080001B0100081B01000889060008C94A000876
:10009000D94A00081B0100081B0100081B010008C9
:1000A0001B0100081B0100081B0100081B010008C0
:1000B0001B0100081B0100081B0100081B010008B0
:1000C0001B0100081B0100081B0100081B010008A0
:1000D00029390008B94100081B0100081B0100086C
:1000E0002F0800081B0100081B010008DFF80CD0D6
:1000F00000F0A8FA00480047ED4B0008180900205E
:100100000648804706480047FEE7FEE7FEE7FEE7B1
:10011000FEE7FEE7FEE7FEE7FEE7FEE7453E0008F6
:10012000ED000008202A04DB203A21FA02F0002129
:10013000704721FA02F3D040C2F1200291400843F7
:100140001946704740EA01039B0703D009E008C93C
:10015000121F08C0042AFAD203E011F8013B00F88C
:10016000013B521EF9D27047D2B201E000F8012BD8
:10017000491EFBD270470022F6E710B513460A4627
:1001800004461946FFF7F0FF204610BDF0B480EAA0
:100190000102D40F4200B2EB410F02D202460846E0
:1001A00011464A0042D0C30DDDB2C1F3C752AD1AA9
:1001B000202D35DAC1F3160141F4000204B1524298
:1001C000C5F1200602FA06F12A411044B3EBD05FD4
:1001D00023D0C4B1012DA0EBC35009DCF0BC4FF01B
:1001E000004202EAC352DBB200F5000000F09FB902
:1001F000400000F1807000EBC350A0F1807040EA35
:10020000D170490009E0490841EAC071A0EBC35030
:1002100000F50000400800EBC350F0BC00F07EB9D0
:100220006142012202EB4101001BF6E7F0BC70477E
:1002300081F00041AAE780F00040A7E780EA0102D0
:1002400010B502F00043400022D04A001FD0010E3A
:1002500001EB1261C0F35600C2F3560240F40000F5
:1002600042F40002A0FB022000047F39140400D0F5
:10027000401C50EA124001D44000491EC2B20C0694
:1002800004EBD010401C4008802A02D003E000207C
:1002900010BD20F00100002900DA0020184310BD35
:1002A0002DE9FE4F81EA030404F0004421F00041EF
:1002B00000944FF0000B23F0004350EA01045ED09D
:1002C00052EA03045BD0C3F30A54C1F30A552C4429
:1002D000A4F2F3340194A0FB0254C1F3130141F4DE
:1002E0008011C3F3130343F4801301FB024400FBAA
:1002F000034E840A970A44EA815447EA8357A4FBD1
:10030000076802958D0A05FB07854FEA932C04FBCD
:100310000C542705029D4FEA065847EA1637B5EBFD
:1003200008056EEB070C870E920E47EA811742EA2A
:100330008312A7FB0201B6EB0B0164EB00042B0D4B
:1003400043EA0C335E1844EB1C50DA465146E7FB97
:100350000201C5F313044FEA0B3343EA14534FEA87
:100360000432019C43EA0603A4F10C040294009CAD
:10037000CDE900B400F018F903B0BDE8F08F00201B
:100380000146F9E72DE9F04D81EA030404F0004B42
:1003900021F0004514464FF0000A23F0004150EAD6
:1003A000050220D054EA01021DD0C5F30A570246C7
:1003B000C5F31303C1F31300C1F30A5640F48015CB
:1003C00043F48013A7EB0608101BD64608F2FD384D
:1003D00073EB050002D308F1010801E092185B41BC
:1003E000B8F1000F03DA00200146BDE8F08D0020CF
:1003F0004FF48011064684460EE0171B73EB050789
:1004000005D3121B63EB050306434CEA010C4908B4
:100410004FEA300092185B4150EA0107EDD152EAF1
:10042000030012D082EA040083EA0501084305D0E4
:10043000101BAB4106D20122002306E000224FF040
:10044000004302E06FF0010253101AEB06004CEB80
:10045000085110EB0A0041EB0B01BDE8F04D00F034
:1004600094B896230022114600F061B820F00040B5
:10047000C10DC0F3160040F400007F2901DA00200E
:100480007047962903DCC1F19601C8407047963940
:100490008840704700F0004230F000400AD0C10DA3
:1004A00001F56071C0F3160042EA0151C20840072D
:1004B0001143704700200146704701F0004330B4FB
:1004C00021F0004150EA010206D00A0DA2F5607247
:1004D000C1F31301002A02DC30BC00207047440F36
:1004E00044EAC104C100E01830BC00EBC25000F087
:1004F00015B80000002801DBC0F10040002901DB35
:10050000C1F1004181427047002801DBC0F1004089
:10051000002901DBC1F10041884270470029A8BFD2
:100520007047401C490008BF20F00100704710B41C
:10053000B0FA80FC00FA0CF050EA010404BF10BCD1
:10054000704749B1CCF1200421FA04F411FA0CF1FE
:1005500018BF012121430843A3EB0C01CB1D4FEA37
:1005600000614FEA102042BF002010BC704700EB32
:10057000C35010440029A4BF10BC7047401C490060
:1005800008BF20F0010010BC704710B5141E73F1B5
:10059000000408DA401C41F1000192185B411A4343
:1005A00001D120F0010010BD2DE9F04D92469B468F
:1005B00011B1B1FA81F202E0B0FA80F22032904635
:1005C00000F052F804460F4640EA0A0041EA0B01E7
:1005D00053465A46084313D0114653EA010019D036
:1005E000C8F140025046FFF79DFD05460E465046B5
:1005F0005946424600F038F8084305D0012004E08F
:1006000020463946BDE8F08D0020054346EAE076F5
:100610002C4337430A986305E40AA0EB0800002244
:10062000FD0A44EA47540A3002D500200146E9E7B2
:10063000010510196941DDE9084500196941BDE866
:10064000F04DA2E7064C074D06E0E06840F00103DC
:1006500094E8070098471034AC42F6D3FFF74AFD00
:10066000404D0008604D0008202A04DB203A00FAC3
:1006700002F1002070479140C2F1200320FA03F3F9
:10068000194390407047000010B5024800F0DAF9B5
:1006900010BD00008800002070B5044600252068C9
:1006A000806800F00100F0B12068806820F001004F
:1006B0002168886000F064FF05460EE000F060FFEE
:1006C000401B022809D9A06A40F01000A062E06A2D
:1006D00040F00100E062012070BD2068806800F0F9
:1006E00001000028EAD10020F6E770B505466C6AE3
:1006F000A06A00F05000E0B9A06A40F40070A06267
:100700002068806800F46020B0F5602F0DD1207B58
:1007100058B9A06A20F48070A062A06A00F48050EA
:1007200018B9A06A40F00100A062204600F038F934
:1007300003E0206A016B2846884770BD70B5054606
:100740006C6AA06A40F04000A062E06A40F00400D9
:10075000E062204600F075F970BD70B50446656A28
:10076000284600F06DF970BD38B50446002500201C
:1007700000902068806800F0010080BB20688068DD
:1007800040F0010021688860164800681649B0FBF7
:10079000F1F0009002E00098401E009000980028C0
:1007A000F9D100F0EDFE054613E000F0E9FE401B34
:1007B00002280ED9A06A40F01000A062E06A40F062
:1007C0000100E06200BF002084F8240000BF012087
:1007D00038BD2068806800F001000028E5D00020C6
:1007E000F6E700002800002040420F0000BFFEE7AF
:1007F00010B5024800F0D4FB10BD0000B800002086
:1008000030B590F840500124AC40C56B6C60046872
:1008100063604468102C04D10468A2600468E1603D
:1008200003E00468A1600468E26030BD704710B561
:100830004FF4806000F006FD10BD70477047000067
:1008400038B5024600230020009000BF92F8240033
:10085000012801D1022038BD012082F8240000BF08
:100860004868072812D21068406B0C79641E04EBAC
:1008700084051F24AC40A0430D796D1E05EB850552
:100880000C68AC4020431468606327E048680D287A
:1008900012D21068006B0C79E41F04EB84051F244E
:1008A000AC40A0430D79ED1F05EB85050C68AC400D
:1008B00020431468206311E01068C06A0C790D3C75
:1008C00004EB84051F24AC40A0430D790D3D05EBDE
:1008D00085050C68AC4020431468E06208680A286B
:1008E00012D31068C0680C780A3C04EB4405072456
:1008F000AC40A0430D780A3D05EB45058C68AC4043
:1009000020431468E0600FE0106800690C7804EB85
:1009100044050724AC40A0430D7805EB45058C68E1
:10092000AC402043146820610868102802D0086891
:10093000112827D1174C1068A0421ED1106880687A
:1009400000F40000F0B91068806840F400001468FA
:10095000A0600868102815D10F4800680F4CB0FB44
:10096000F4F000EB80004000009002E00098401E90
:10097000009000980028F9D104E0906A40F020002F
:100980009062012300BF002082F8240000BF1846B7
:1009900061E70000002401402800002040420F00D1
:1009A000014600200AE0214A52F82020204B33F86B
:1009B00010301A441D4B43F82020401C0628F2DB5F
:1009C0001C4A1288521C1B4B1A801A4612880A2A8B
:1009D0002AD100200DE0154A52F820200A23B2FB4C
:1009E000F3F2154B23F810200022104B43F820207F
:1009F000401C0628EFDB00220E4B1A800E4A12889C
:100A00000D4B5B88D21A0D4B1A800B4A92885A8084
:100A1000094AD2889A80084A1289DA80064A52899D
:100A20001A81054A52895A8170470000440000200B
:100A30002C00002000000020380000206C00002066
:100A40007047704710B504462068406800F02000E9
:100A500020282FD12068006800F00200022829D148
:100A6000A06A00F0100018B9A06A40F40070A062FB
:100A70002068806800F46020B0F5602F13D1207BDF
:100A800088B92068406820F0200021684860A06A8A
:100A900020F48070A062A06A00F4805018B9A06AA7
:100AA00040F00100A0622046FFF77AFF6FF01200CD
:100AB000216808602068406800F0800080283BD1F1
:100AC0002068006800F00400042835D1A06A00F016
:100AD000100018B9A06A40F40050A0622068806835
:100AE00000F4E040B0F5E04F0DD02068406800F41D
:100AF0008060D0B92068806800F46020B0F5602F75
:100B000013D1207B88B92068406820F080002168DC
:100B10004860A06A20F48050A062A06A00F480704F
:100B200018B9A06A40F00100A0622046FFF786FED7
:100B30006FF00C00216808602068406800F04000F9
:100B400040280FD12068006800F0010050B1A06A71
:100B500040F48030A062204600F0A8F86FF0010059
:100B60002168086010BD00002DE9F041044600270F
:100B700000250026A84614B90120BDE8F081A06830
:100B800010B1207D00B100BFA06A30B90020E06242
:100B900084F82400204600F08BF82046FFF77CFD07
:100BA0000746A06A00F01000002873D1002F71D111
:100BB000A06A20F4885040F00200A062E1696068F9
:100BC0000843217B40EA41000643A068B0F5807FDE
:100BD00002D0A068012802D14FF4807000E000200C
:100BE0000543207D012811D1207B38B9A069401E22
:100BF0004FF4006141EA4030054307E0A06A40F04D
:100C00002000A062E06A40F00100E06220684068D5
:100C100020F46940284321684860206880682149A1
:100C20000840304321688860A068B0F5807F02D01A
:100C3000A068012802D14FF4807000E00020B0F5D8
:100C4000807F03D1208A401E4FEA00582068C06A86
:100C500020F4700040EA08002168C86220688068BB
:100C600011490840B04208D10020E062A06A20F09B
:100C7000020040F00100A06211E0A06A20F0020032
:100C800040F01000A062E06A40F00100E06201273D
:100C900005E0FFE7A06A40F01000A0620127384697
:100CA0006BE70000FDF7E1FFFE0E1FFF704700003D
:100CB00010B586B004460020029003900490059081
:100CC00026492068884246D100BF2548806940F403
:100CD0000070234988610846806900F40070019023
:100CE00000BF00BF00BF0846806940F00400886173
:100CF0000846806900F00400019000BF00BF3F205B
:100D000002900320039002A9164800F0A9FA1648A1
:100D10001649086000204860002114488160802145
:100D2000C160490001618900416120218161C901DF
:100D3000C16100F003FA08B1FFF77FFD00BF0B4867
:100D40002062446200BF00221146122000F0B4FD70
:100D5000122000F0A1FD06B010BD000000240140EB
:100D6000001002400008014008000240B8000020C6
:100D70002DE9F04104460D461646002757492068E4
:100D8000884203D056492068884205D15348001D47
:100D9000006800F4702000E0002000287ED100BF31
:100DA00094F82400012802D10220BDE8F08101203E
:100DB00084F8240000BF2046FFF7D6FC0746002F2A
:100DC0006DD1A06A40F60161884340F48070A06252
:100DD00043492068884209D14048001D006800F45A
:100DE000702008B9012002E0002000E0012078B165
:100DF000A06A20F48010A0622068406800F480603F
:100E000000B3A06A20F4005040F48050A06219E0C2
:100E1000A06A40F48010A06230492068884203D064
:100E20002F492068884205D12C48001D006800F435
:100E3000806000E0002028B1A06A20F4005040F457
:100E40008050A062A06A00F4805020B1E06A20F0D7
:100E50000600E06201E00020E06200BF002084F8AC
:100E6000240000BF1F48216A88621F48216AC862A7
:100E70001E48216A08636FF002002168086020683C
:100E8000806840F4807021688860226802F14C011B
:100E900033462A46206A00F085F901E01AE014E0A2
:100EA0002068806800F46020B0F5602F06D12068CB
:100EB000806840F4A000216888600CE020688068A9
:100EC00040F480102168886005E000BF002084F8AD
:100ED000240000E00127384667E7000000240140B5
:100EE00000280140EB0600085B0700083D070008EA
:100EF00070B50446002594F82100022803D0042090
:100F0000A063012548E02068006820F00E002168F9
:100F100008602068006820F00100216808601F490F
:100F20002068884201D1012026E01C491431206844
:100F3000884201D110201FE01849283120688842DA
:100F400001D1801518E015493C312068884201D153
:100F5000801411E0114950312068884202D14FF4C9
:100F6000803009E00D4964312068884202D14FF495
:100F7000801001E04FF08070084908394860012076
:100F800084F8210000BF002084F8200000BF606BBF
:100F900010B12046616B8847284670BD08000240AA
:100FA00070B50446E06B05682068066894F8401048
:100FB000042088402840002846D006F0040000287D
:100FC00042D02068006800F0200028B9206800683E
:100FD00020F004002168086057492068884201D148
:100FE000042027E0544914312068884201D1402070
:100FF00020E0514928312068884201D1001519E0CC
:101000004D493C312068884202D14FF4804011E0C4
:10101000494950312068884202D14FF4802009E0CC
:10102000454964312068884202D14FF4800001E0D4
:101030004FF08060404908394860E06A00287AD063
:101040002046E16A884776E094F840100220884004
:101050002840A0B306F0020088B32068006800F0C2
:10106000200040B92068006820F00A00216808606C
:10107000012084F8210030492068884201D10220F3
:1010800028E02D4914312068884201D1202021E038
:10109000294928312068884201D140151AE02649A3
:1010A0003C312068884202D14FF4005012E02249BE
:1010B00050312068884203D14FF400300AE017E035
:1010C0001D4964312068884202D14FF4001001E0CC
:1010D0004FF0007018490839486000BF002084F8BC
:1010E000200000BFA06A30B32046A16A884722E0F2
:1010F00094F84010082088402840E0B106F008002D
:10110000C8B12068006820F00E002168086094F8DB
:10111000401001208840E16B48600120A06384F802
:10112000210000BF002084F8200000BF206B10B118
:101130002046216B884770BD08000240014600220E
:1011400009B901207047164B0868C01A1423B0FB78
:10115000F3F08000086412480838C863022081F860
:1011600021000868026843F6F0708243D1E9010368
:101170001843CB6818430B6918434B6918438B69B4
:101180001843CB6918430243086802600020886353
:10119000012081F82100002081F8200000BFD1E764
:1011A000080002402DE9F04104460D4616461F4650
:1011B0004FF0000800BF94F82000012802D102205F
:1011C000BDE8F081012084F8200000BF94F82100E0
:1011D00001282CD1022084F821000020A06320687F
:1011E000006820F00100216808603B46324629462D
:1011F0002046FFF705FBE06A30B12068006840F048
:101200000E00216808600BE02068006820F00400F0
:10121000216808602068006840F00A0021680860C2
:101220002068006840F001002168086006E000BF07
:10123000002084F8200000BF4FF002084046BFE7BE
:101240007047000010B5044604480068204020B1F3
:10125000024804602046FFF7F3FF10BD140401406C
:101260002DE9F8470346002294466EE14FF001084D
:1012700008FA02F4D1F8008008EA0400A0427DD107
:10128000DFF8DCA2D1F80480A8EB0A09D0453AD0F7
:1012900014DCB8F1030F50D009DCB8F1000F31D0E5
:1012A000B8F1010F1CD0B8F1020F49D120E0B8F11C
:1012B000110F18D0B8F1120F42D11EE0B9F5881FF6
:1012C00025D006DCB9F5803F20D0B9F5801F37D195
:1012D0001AE0B9F5001F18D0B9F5041F30D117E096
:1012E000D1F80CC02DE0D1F80C8008F1040C28E0F6
:1012F000D1F80C8008F1080C23E0D1F80C8008F13B
:101300000C0C1EE000BF00BF00BF00BF00BF00BF4D
:10131000D1F80880B8F1000F02D14FF0040C0BE0B7
:10132000D1F80880B8F1010F03D14FF0080C1C610F
:1013300002E04FF0080C5C6103E04FF0000C00E0AD
:1013400000BF00BFFF2801D8984601E003F1040860
:101350004646FF2802D84FEA820803E0A2F10808B7
:101360004FEA88084746D6F800804FF00F0909FA7F
:1013700007F928EA09080CFA07F900E088E048EACA
:101380000908C6F80080D1F8048008F08058B8F148
:10139000805F7DD100BFDFF8CC81D8F8188048F09D
:1013A0000108DFF8C091C9F81880C846D8F818803D
:1013B00008F00108CDF8008000BF00BF4FEAB9383F
:1013C0004FEA920958F829504FEA82784FEA187983
:1013D0004FF00F0808FA09F825EA0805DFF88881B8
:1013E000434502D14FF0000816E0DFF88081434505
:1013F00002D14FF001080FE0DFF87481434502D1BC
:101400004FF0020808E0DFF86C81434502D14FF04D
:10141000030801E04FF004084FEA82794FEA197996
:1014200008FA09F848EA0505DFF84C814FEA920905
:1014300048F82950D1F8048008F48038B8F5803F86
:101440000AD1DFF83881D8F8008048EA0008DFF8D0
:101450002C91C9F8008009E0DFF82081D8F80080DD
:1014600028EA0008DFF81491C9F80080D1F8048058
:1014700008F40038B8F5003F10D1DFF8008108F11A
:101480000408D8F8008048EA0008DFF8F09000E08F
:101490005AE009F10409C9F800800DE0DFF8DC80AA
:1014A00008F10408D8F8008028EA0008DFF8CC909A
:1014B00009F10409C9F80080D1F8048008F4801803
:1014C000B8F5801F0ED1DFF8B48008F10808D8F80D
:1014D000008048EA0008DFF8A49009F10809C9F87B
:1014E00000800DE0DFF8948008F10808D8F800804B
:1014F00028EA0008DFF8849009F10809C9F800809B
:10150000D1F8048008F40018B8F5001F0ED1DFF8F8
:101510006C8008F10C08D8F8008048EA0008DFF871
:101520005C9009F10C09C9F800800DE0DFF84C80EF
:1015300008F10C08D8F8008028EA0008DFF83C9091
:1015400009F10C09C9F80080521CD1F8008028FA72
:1015500002F8B8F1000F7FF489AEBDE8F88700000B
:10156000000011100010024000080140000C014072
:101570000010014000140140080001400004014037
:1015800001480068704700001C00002070B5044648
:101590000CB9012070BD94F83D0028B9002084F8F2
:1015A0003C00204600F0CEF8242084F83D0020685E
:1015B000006820F001002168086000F01FFD05466A
:1015C0005C496068884206D85B48854201D20120A8
:1015D00007E0002005E05948854201D2012000E0E3
:1015E0000020012800D1D5E75548B5FBF0F620686A
:1015F000406820F03F003043216848604D496068F2
:10160000884201D8701C07E04FF4967070434FF485
:101610007A71B0FBF1F0401C2168096A21F03F01AA
:1016200008432168086243496068884214D8681EEC
:1016300061684900B0FBF1F0401CC0F30B000428C6
:1016400001D204203DE0681E61684900B0FBF1F062
:10165000401CC0F30B0034E0A06838B9681E616814
:1016600001EB4101B0FBF1F0401C0AE0681E61682B
:1016700001EBC10202EB0111B0FBF1F0401C40F4A0
:101680008040C0F30B0008B901201AE0A06848B9F7
:10169000681E616801EB4101B0FBF1F0401CC0F332
:1016A0000B000CE0681E616801EBC10202EB011146
:1016B000B0FBF1F0401CC0F30B0040F4804040F45C
:1016C00000402168C9694CF6FF72914308432168C4
:1016D000C861D4E9070108432168096821F0C00105
:1016E000084321680860D4E9031008432168896829
:1016F00048F2FF329143084321688860D4E905012C
:1017000008432168C96821F0FF0108432168C860C7
:101710002068006840F00100216808600020206413
:10172000202084F83D000020206384F83E0000BFA4
:1017300030E70000A086010080841E0000093D0003
:1017400040420F0010B586B004460020029003907E
:101750000490059015492068884225D100BF14489F
:10176000806940F00800124988610846806900F0ED
:101770000800019000BF00BFC0200290122003901B
:101780000320059002A90B48FFF76AFD00BF084837
:10179000C06940F400100649C8610846C06900F4F9
:1017A0000010019000BF00BF06B010BD0054004003
:1017B00000100240000C014003480068034909780A
:1017C00008440149086070471C00002024000020E4
:1017D00010B50848006840F0100006490860032072
:1017E00000F0A8F8002000F007F800F02BF8002027
:1017F00010BD00000020024070B504460E4800787D
:101800004FF47A71B1FBF0F00C490968B1FBF0F5C7
:10181000284601F02EF908B1012070BD102C07D226
:1018200000222146501E00F047F80548046001E000
:101830000120F2E70020F0E724000020280000202B
:101840002000002008B500BF1148806940F0010069
:101850000F4988610846806900F00100009000BFD0
:1018600000BF00BF0846C06940F08050C86108460C
:10187000C06900F08050009000BF00BF00BF054964
:10188000486820F0E06000BF486000BF08BD00006D
:10189000001002400000014001460846002809DB14
:1018A00000F01F0301229A4043099B0003F1E0234B
:1018B000C3F8002100BF70472DE9F05F80460D4658
:1018C0001646002703F066F9074639462A4633468E
:1018D00001F00700C0F1070ABAF1040F02D94FF076
:1018E000040A01E0C0F1070AD14600F1040ABAF186
:1018F000070F02D24FF0000A01E0A0F1030AD4461C
:101900004FF0010A0AFA09FAAAF1010A0AEA020AE0
:101910000AFA0CFA4FF0010B0BFA0CFBABF1010BBE
:101920000BEA030B4AEA0B042146404603F03AF95E
:10193000BDE8F09F00BF00F00702064B19684FF6A4
:10194000FF031940044B0B4343EA0221014B19608A
:1019500000BF70470CED00E00000FA0570477047CB
:101960002DE9F04105460E461746984606F0070158
:1019700005F5947000EB41146761C4F818800020ED
:10198000E061607006F00700207006F0070020B9E3
:101990002146286802F063FE03E02146286802F031
:1019A0005EFE0020BDE8F0812DE9F04105460E46BF
:1019B0001746984606F0070105F1280000EB411490
:1019C0006761C4F818800020E0610120607006F0B3
:1019D0000700207006F0070020B92146286802F0B1
:1019E0003EFE03E02146286802F039FE0020BDE8F3
:1019F000F08110B50446206803F076F800F400404A
:101A0000B0F5004F02D1204601F06FFD206803F0D1
:101A10006BF800F48060B0F5806F0ED12068B0F8EC
:101A2000440020F480602168A1F84400204600F0C2
:101A300061F90021204600F060F9206803F054F8B5
:101A400000F48040B0F5804F07D12068B0F8440022
:101A500020F480402168A1F84400206803F044F895
:101A600000F40050B0F5005F07D12068B0F84400E2
:101A700020F400502168A1F84400206803F034F8F5
:101A800000F48050B0F5805F1CD12068B0F84000B1
:101A90004FF6FB7108402168A1F840002068B0F8BB
:101AA00040004FF6F77108402168A1F84000204639
:101AB00000F021F92068B0F8440020F4805021683B
:101AC000A1F84400206803F00FF800F40060B0F5BE
:101AD000006F2AD12068B0F8400040F0080021686B
:101AE000A1F840002068B0F8440020F400602168AC
:101AF000A1F844002068B0F8400040F004002168DC
:101B0000A1F84000206802F0EFFF00F48050B0F52B
:101B1000805F07D12068B0F8440020F4805021682D
:101B2000A1F84400204600F004F9206802F0DCFF30
:101B300000F40070B0F5007F0AD12068B0F84400CE
:101B400020F400702168A1F84400204600F0D4F889
:101B5000206802F0C9FF00F48070B0F5807F07D1E3
:101B60002068B0F8440020F480702168A1F8440097
:101B700010BD30B585B0044614B9012005B030BDA4
:101B800094F8290228B9002084F82802204600F0A1
:101B900087F8032084F82902206802F056FD1422F9
:101BA00004F110016846FEF7CDFA94E80F0002F048
:101BB00036FD20B1022084F829020120DEE7002151
:101BC000206802F0BAFF002526E0012104F1280078
:101BD00000EB4510417004F1280000EB4510057042
:101BE00004F1280000EB4510C581002104F1280014
:101BF00000EB4510C17004F1280000EB45100161B5
:101C000004F1280000EB4510416104F1280000EBCD
:101C100045108161681CC5B26068A842D5D800250E
:101C200020E0002104F5947000EB4510417004F5AC
:101C3000947000EB4510057004F5947000EB4510AE
:101C4000C17004F5947000EB4510016104F59470C7
:101C500000EB4510416104F5947000EB4510816183
:101C6000681CC5B26068A842DBD8142204F11001D8
:101C70006846FEF767FA94E80F0002F0D7FC20B13F
:101C8000022084F82902012078E7002084F824004B
:101C9000012084F82902206802F0C5FC00206DE7CD
:101CA00038B504461149206888421DD100BF10484C
:101CB000C06940F400000E49C8610846C06900F4DC
:101CC0000000009000BF00BF002211461320FFF764
:101CD000F3FD1320FFF7E0FD002211461420FFF76B
:101CE000EBFD1420FFF7D8FD38BD0000005C00407C
:101CF0000010024070477047704770B504460D46AB
:101D000000BF94F82802012801D1022070BD0120F3
:101D100084F8280200BF84F824502946206802F085
:101D20000FFF00BF002084F8280200BF00BFEDE7CE
:101D300070477047F8B5044600260025207800F06B
:101D4000010000286BD000274348C06900F0805094
:101D500070B900BF4048C06940F080503E49C8613A
:101D60000846C06900F08050009000BF00BF012706
:101D70003A48006800F48070B0B93848006840F410
:101D8000807036490860FFF7FBFB064606E0FFF768
:101D9000F7FB801B642801D90320F8BD2F48006899
:101DA00000F480700028F2D02B48006A00F44075DF
:101DB0002DB3A08800F44070A84220D02648006AC5
:101DC00020F4407501202649086000200860224860
:101DD000056205F0010090B1FFF7D2FB064608E06E
:101DE000FFF7CEFB801B41F28831884201D90320E6
:101DF000D3E71948006A00F002000028F0D0164826
:101E0000006A20F440706168084313490862012F9A
:101E100004D10846C06920F08050C86100BF207816
:101E200000F00200022807D10B48406820F440402F
:101E3000A168084308494860207800F01000102885
:101E400007D10548406820F48000E1680843024952
:101E500048600020A1E70000001002400070004030
:101E60004004424270B504460D460CB9012070BDD5
:101E70005A48006800F00700A8420ED25748006890
:101E800020F007002843554908600846006800F024
:101E90000700A84201D00120E9E7207800F0020005
:101EA00002281DD1207800F00400042805D14C48F8
:101EB000406840F4E0604A494860207800F008003B
:101EC000082805D14648406840F4605044494860BD
:101ED0004348406820F0F000A1680843404948604A
:101EE000207800F0010078B36068012806D13C48F2
:101EF000006800F4003090B90120B8E7606802285B
:101F000006D13748006800F0007040B90120AEE704
:101F10003348006800F0020008B90120A7E7304804
:101F2000406820F00300616808432D494860FFF7CE
:101F300027FB064609E0FFF723FB801B41F28831AF
:101F4000884202D9032092E707E02548406800F064
:101F50000C006168B0EB810FEDD12048006800F003
:101F60000700A8420ED91D48006820F0070028434A
:101F70001A4908600846006800F00700A84201D02E
:101F8000012074E7207800F00400042807D11448E9
:101F9000406820F4E060E168084311494860207817
:101FA00000F00800082808D10D48406820F460506F
:101FB000216940EAC1000A49486000F03FF8084939
:101FC0004968C1F30311074A515CC84006490860DB
:101FD00006480068FFF710FC002048E70020024098
:101FE00000100240284D000828000020200000209A
:101FF00001480068704700002800002000B5FFF786
:10200000F7FF04494968C1F30221034A515CC84003
:1020100000BD000000100240384D000800B5FFF779
:10202000E7FF04494968C1F3C221034A515CC84033
:1020300000BD000000100240384D0008F0B585B02A
:102040000FF26C0C9CE8E01001A8A0E8E0101CA5C1
:102050002D68009500210022002300240020194D46
:10206000696801F00C05F5B1042D02D0082D19D1D5
:1020700001E0154819E001ADC1F38346AC5D01F400
:10208000803555B10F4D6D68C5F340451DF80520ED
:102090000D4D6543B5FBF2F302E00C4D04FB05F377
:1020A000184602E000BF084800BF00BF05B0F0BD01
:1020B00002030405060708090A0B0C0D0E0F101089
:1020C000010200000010024000127A0000093D00E9
:1020D000F8B504460CB90120F8BD207800F00100E5
:1020E000002878D0F848406800F00C0004280CD094
:1020F000F548406800F00C00082811D1F24840680B
:1021000000F48030B0F5803F0AD1EF48006800F459
:10211000003000285FD0606800285CD10120DBE738
:1021200000BF6068B0F5803F06D1E748006840F422
:102130008030E549086028E0606858B9E2480068E6
:1021400020F48030E04908600846006820F48020D0
:1021500008601AE06068B0F5A02F0BD1DA4800687B
:1021600040F48020D84908600846006840F4803078
:1021700008600AE0D448006820F48030D249086042
:102180000846006820F48020086000BF606888B1BD
:10219000FFF7F6F9054606E0FFF7F2F9401B642861
:1021A00001D9032098E7C848006800F400300028EF
:1021B000F2D010E0FFF7E4F9054606E0FFF7E0F99A
:1021C000401B642801D9032086E7BF48006800F45B
:1021D00000300028F2D1207800F00200022857D108
:1021E000B948406800F00C0050B1B748406800F0B2
:1021F0000C00082818D1B448406800F4803098B921
:10220000B148006800F0020020B12069012801D027
:10221000012061E7AC48006820F0F800616940EAFD
:10222000C100A949086033E02069E8B10120A7494D
:102230000860FFF7A5F9054606E0FFF7A1F9401B86
:10224000022801D9032047E79F48006800F00200F8
:102250000028F2D09C48006820F0F800616940EA4C
:10226000C1009949086013E0002098490860FFF711
:1022700087F9054606E0FFF783F9401B022801D9DC
:10228000032029E79048006800F002000028F2D1FE
:10229000207800F0080008282DD1A069B8B10120ED
:1022A0008B490860FFF76CF9054606E0FFF768F90F
:1022B000401B022801D903200EE78348406A00F042
:1022C00002000028F2D0012001F01AFB13E00020E8
:1022D0007F490860FFF754F9054606E0FFF750F91B
:1022E000401B022801D90320F6E67748406A00F037
:1022F00002000028F2D1207800F00400042873D1F5
:1023000000277148C06900F0805070B900BF6E4866
:10231000C06940F080506C49C8610846C06900F04F
:102320008050009000BF00BF01276A48006800F499
:102330008070B0B96748006840F4807065490860F3
:10234000FFF71EF9054606E0FFF71AF9401B64285F
:1023500001D90320C0E65F48006800F480700028BF
:10236000F2D000BFE068012806D15748006A40F06B
:1023700001005549086227E0E06858B95248006AF0
:1023800020F00100504908620846006A20F004006D
:10239000086219E0E06805280BD14B48006A40F05C
:1023A0000400494908620846006A40F001000862DA
:1023B0000AE04548006A20F00100434908620846E7
:1023C000006A20F00400086200BFE068A0B1FFF7D7
:1023D000D7F8054609E0FFF7D3F8401B41F28831F2
:1023E000884202D9032077E622E03748006A00F0ED
:1023F00002000028EFD012E0FFF7C2F8054608E01F
:10240000FFF7BEF8401B41F28831884201D9032012
:1024100062E62D48006A00F002000028F0D1012F8A
:1024200005D12948C06920F080502749C86100BF04
:10243000E069C8B32448406800F00C00082860D068
:10244000E069022848D1002020490866FFF798F883
:10245000054606E0FFF794F8401B022801D9032047
:102460003AE61948006800F000700028F2D1206AAE
:10247000B0F5803F07D11448406820F40030A168CF
:10248000084311494860D4E9080108430E494968E6
:1024900021F4741108430C49486001200B49086677
:1024A000FFF76EF8054607E03DE0FFF769F8401BCF
:1024B000022801D903200FE60348006800F00070ED
:1024C0000028F2D02FE0000000100240000042423D
:1024D0008004424200700040002014490866FFF763
:1024E0004FF8054606E0FFF74BF8401B022801D9DC
:1024F0000320F1E50E48006800F000700028F2D1DA
:1025000011E0E069012800D1E6E50948466806F4D3
:102510008031206A814204D106F47011606A8142E0
:1025200001D00120D8E50020D6E50000000042429D
:102530000010024070470000F8B504462068466865
:1025400020688568C5F3801048B905F0010030B1F6
:10255000C6F3801018B12046216C8847F8BDC5F33A
:10256000400030B1C6F3C01018B12046616C8847F6
:10257000F4E7C5F3401018B9C5F38010002871D0F6
:10258000C6F3401000286DD0C5F38010F0B194F868
:10259000510003280ED0606D40F00400606500BF5C
:1025A000002000902068C06800902068806800903B
:1025B00000BF0BE000BF002000902068C0680090C2
:1025C00020688068009000BF00BFC7E7C5F34010D7
:1025D00088B1606D40F00100606500BF0020009090
:1025E0002068806800902068006820F04000216822
:1025F000086000BF00BF606D70B32068406820F0C5
:10260000E00021684860012084F8510006F00200D3
:1026100010B906F0010000B32068406820F0030004
:1026200021684860E06C50B10F48E16C4863E06C91
:10263000FEF75EFC18B1606D40F040006065A06C74
:1026400050B10948A16C4863A06CFEF751FC18B169
:10265000606D40F04000606502E02046FFF76AFFD1
:102660007CE7FFE700BF79E7C53B000810B50446EB
:102670000CB9012010BD606A00B900BF0021A16241
:1026800094F8510028B9002084F85000204600F04A
:1026900031F8022084F851002068006820F04000E2
:1026A00021680860D4E901010843E1680843216911
:1026B000084361690843218B01F400710843E16913
:1026C0000843216A0843A16A08432168086004217D
:1026D000A06901EA1040216848602068C06920F4C0
:1026E00000602168C86100206065012084F8510005
:1026F0000020BFE710B586B004460020029003908A
:10270000049005901E492068884237D100BF1D48BB
:10271000C06940F480401B49C8610846C06900F4A4
:102720008040019000BF00BF00BF0846806940F0B4
:10273000080088610846806900F00800019000BF29
:1027400000BF4FF43040029000200390049002A993
:102750000D48FEF785FD4FF4804002900220039063
:102760000320059002A90848FEF77AFD00221146D1
:102770002420FFF7A1F82420FFF78EF806B010BD43
:102780000038004000100240000C0140F0B5044643
:102790000E4615460027A06868B96068B0F5827FCC
:1027A00009D1042084F851002B4632463146204698
:1027B00000F080F8F0BD00BF94F85000012801D16E
:1027C0000220F7E7012084F8500000BF94F8510080
:1027D000012801D0022733E006B10DB901272FE00F
:1027E000042084F8510000206065A663A587E58772
:1027F0002063A086E0866064E06810B1144820641D
:1028000001E014482064A068B0F5004F05D12068AD
:10281000006820F48040216808602068406840F02B
:102820006000216848602068006800F0400040288F
:1028300005D02068006840F040002168086000BFB3
:1028400000BF002084F8500000BF3846B2E7000007
:10285000793C00089D3C000810B5044610480078FB
:10286000104908700E48807848700D48407888708C
:10287000002005E00C490A5C0A4BC11C5A54401C5C
:102880000F28F7DB0648007A0649C873102207486C
:1028900000F072F8102206490448FFF777FF10BDD8
:1028A0005C000020020000206C000020500100208D
:1028B00078000020F0B50446002700BF94F85000CF
:1028C000012801D10220F0BD012084F8500000BF92
:1028D00094F851506668012D08D0B6F5827F03D177
:1028E000A06808B9042D01D0022735E009B102B172
:1028F0000BB9012730E094F85100042802D00520DC
:1029000084F85100002060652163A386E386A263FA
:10291000A387E387E06820B113482064134860640C
:1029200003E013482064134860642068406840F066
:10293000E000D4F800C0CCF804002068006800F083
:102940004000402807D02068006840F04000D4F8DC
:1029500000C0CCF8000000BF00BF002084F8500089
:1029600000BF3846AFE7000039390008A139000838
:102970006D390008D539000830B50346002400BF82
:1029800093F85000012801D1022030BD012083F8C6
:10299000500000BF01B10AB9012435E093F851009D
:1029A000012801D002242FE0032083F851000020E9
:1029B000586519639A86DA8698639887D887186469
:1029C000D86810B11448586401E0144858649868F5
:1029D000B0F5004F05D11868006840F480401D68CC
:1029E00028601868406840F0A0001D68686018689A
:1029F000006800F04000402805D01868006840F0EA
:102A000040001D68286000BF00BF002083F8500010
:102A100000BF2046B9E70000C13C0008E53C0008C3
:102A200010B504460E4800780E4908700C488078AE
:102A300048700B4840788870002005E00A490A5C1D
:102A4000084BC11C5A54401C0F28F7DB0448007A7D
:102A50000449C87310220548FFF78EFF10BD00001F
:102A60005C000020020000206C00002050010020CB
:102A7000704770B504462546681EB0F1807F01D3CB
:102A800001200FE0681E4FF0E02148610F214FF058
:102A9000FF3002F087F800204FF0E0218861072026
:102AA0000861002070BD10B5024600BF92F83C00DE
:102AB000012801D1022010BD012082F83C0000BF96
:102AC000022082F83D00106843681068846823F093
:102AD00070030868034324F08004486804431068C6
:102AE000436010688460012082F83D0000BF002030
:102AF00082F83C0000BF00BFDDE710B504460CB90A
:102B0000012010BD94F83D0028B9002084F83C0055
:102B1000204600F00DF8022084F83D00211D2068B9
:102B200001F0BCF9012084F83D000020E9E7000035
:102B300008B5094A016891420DD100BF074989696A
:102B400041F40061054A91611146896901F400610F
:102B5000009100BF00BF08BD002C014000100240E2
:102B600010B586B0044600200290039004900590B2
:102B70001C492068884217D100BF1B48806940F07B
:102B80000400194988610846806900F0040001903A
:102B900000BF00BFC020029002200390059002A950
:102BA0001248FEF75DFB1BE011492068884217D1EF
:102BB00000BF0D48806940F008000B498861084655
:102BC000806900F00800019000BF00BF4FF4407022
:102BD000029002200390059002A90648FEF740FBF0
:102BE00006B010BD00040040001002400008014083
:102BF00000080040000C014070B504460D46164622
:102C000000BF94F83C00012801D1022070BD0120D2
:102C100084F83C0000BF022084F83D0036B1042E49
:102C20001BD0082E31D00C2E5ED145E029462068FD
:102C300001F08AF92068806940F008002168886105
:102C40002068806920F0040021688861206880691C
:102C5000296908432168886147E02946206801F016
:102C6000A3F92068806940F40060216888612068C9
:102C7000806920F480602168886120688069296902
:102C800040EA0120216888612FE02946206801F090
:102C9000BFF92068C06940F008002168C861206859
:102CA000C06920F004002168C8612068C0692969F2
:102CB00008432168C86118E02946206801F0DCF962
:102CC0002068C06940F400602168C8612068C0695C
:102CD00020F480602168C8612068C069296940EAE1
:102CE00001202168C86100E000BF00BF012084F816
:102CF0003D0000BF002084F83C0000BF00BF85E716
:102D000010B504460CB9012010BD94F83D0028B957
:102D1000002084F83C00204600F00CF8022084F8E3
:102D20003D00211D206801F0B9F8012084F83D0024
:102D30000020E9E708B5124A016891420DD100BFB1
:102D40001049C96941F002010E4AD1611146C969B1
:102D500001F00201009100BF11E00B4A01689142AD
:102D60000DD100BF0749C96941F00401054AD1618D
:102D70001146C96901F00401009100BF00BF08BD00
:102D800000040040001002400008004070B50446F6
:102D90000E4601223146206801F0BAF80D4920683C
:102DA000884201D1012000E0002028B12068406C59
:102DB00040F40040216848642068806800F00705FE
:102DC000062D05D02068006840F0010021680860E9
:102DD000002070BD002C014070B504460D4600BFB8
:102DE00094F83C00012801D1022070BD012084F834
:102DF0003C0000BF022084F83D002946204601F037
:102E00005FF948B1012084F83D0000BF002084F83C
:102E10003C0000BF0120E8E72068C06820F04000C7
:102E20002168C8602068C06820F480402168C860BC
:102E3000012084F83D0000BF002084F83C0000BF62
:102E400000BFD2E7704700002DE9F0470446206834
:102E500005682068C668206847694FF00008C146C9
:102E600005F00F08B8F1000F12D105F0200078B17D
:102E700006F0200060B194F83D00222803D12046DE
:102E800001F0D2F902E0204601F00EFBBDE8F08728
:102E9000B8F1000F77D007F0010018B906F4907070
:102EA000002870D005F0010030B106F4807018B130
:102EB000206C40F00100206405F0040030B107F000
:102EC000010018B1206C40F00200206405F00200FF
:102ED00030B107F0010018B1206C40F0040020640C
:102EE00005F0080030B107F0010018B1206C40F087
:102EF00008002064206C002844D005F0200068B150
:102F000006F0200050B194F83D00222803D120465D
:102F100001F08AF902E0204601F0C6FA2068406913
:102F2000C0F38019206C00F0080010B9B9F1000F4F
:102F300023D0204601F052F92068406900F040009B
:102F4000B0B12068406920F0400021684861A06B62
:102F500050B11C48A16B4863A06BFDF7C9FF88B155
:102F6000A06B416B88470DE02046FFF76BFF09E03F
:102F70002046FFF767FF05E005E02046FFF762FF08
:102F80000020206482E705F0800070B106F0800028
:102F900058B194F83D00122803D1204601F00BFBF4
:102FA00002E0204601F080FA70E705F0400030B101
:102FB00006F0400018B1204601F020F966E700BF96
:102FC00064E70000C941000810B504460CB90120AF
:102FD00010BD94F83D0028B9002084F83C0020463C
:102FE00000F020F8022084F83D00204601F07EF930
:102FF0002068006920F480402168086120684069E9
:1030000020F02A00216848612068C06840F4005020
:103010002168C86000202064012084F83D00002061
:10302000D6E7000010B586B0044600200290039059
:10303000049005901E492068884237D100BF1D4882
:10304000806940F480401B4988610846806900F42B
:103050008040019000BF00BF00BF0846806940F07B
:10306000040088610846806900F00400019000BFF8
:1030700000BF4FF44070029002200390032005909F
:1030800002A90D48FEF7ECF84FF480600290002092
:103090000390049002A90848FEF7E2F800221146C6
:1030A0002520FEF709FC2520FEF7F6FB06B010BD33
:1030B000003801400010024000080140704770478E
:1030C000704700BFFEE700000EB5002000900190A1
:1030D00002902E482E49086081152D4881600121FB
:1030E0000173002101754FF46021C161002028495E
:1030F0004860062126480161FDF736FD08B1FDF75D
:103100009CFB00200090012001900720029069465E
:103110001F48FDF795FB08B1FDF78FFB01200090DC
:103120000220019069461A48FDF78AFB08B1FDF7B5
:1031300084FB022000900320019069461448FDF7AB
:103140007FFB08B1FDF779FB03200090042001907C
:1031500069460F48FDF774FB08B1FDF76EFB0420CC
:1031600000900520019069460948FDF769FB08B108
:10317000FDF763FB05200090062001906946044896
:10318000FDF75EFB08B1FDF758FB0EBD00240140C2
:103190008800002008B500BF0A48406940F00100DF
:1031A000084948610846406900F00100009000BFEE
:1031B00000BF002211460B20FEF77EFB0B20FEF71E
:1031C0006BFB08BD0010024000B585B000200190E7
:1031D00002900390049000BF2448806940F01000E2
:1031E000224988610846806900F01000009000BF05
:1031F00000BF00BF0846806940F020008861084693
:10320000806900F02000009000BF00BF00BF0846AA
:10321000806940F0040088610846806900F004007D
:10322000009000BF00BF00BF0846806940F0080062
:1032300088610846806900F00800009000BF00BF68
:1032400040F2044001900A4802900020039001A936
:103250000848FEF705F8002211462820FEF72CFB4F
:103260002820FEF719FB05B000BD00000010024049
:1032700000001110000C014010B50B480B4908600C
:103280000B484860002109488160C1604FF48041CB
:103290000161002141618161C1610162FEF776F93E
:1032A00008B1FDF7CAFA10BD00540040FC00002030
:1032B000A086010010B50D480D4908600020486047
:1032C00000210B488160C160016141618161282159
:1032D000C16100210162416281620A21C162FFF77E
:1032E000C5F908B1FDF7A9FA10BD0000003800408B
:1032F0005001002000B587B0142102A8FCF73BFF65
:103300000020009001901348134908600020486095
:10331000002111488160C160016141618161FFF755
:10332000ECFB08B1FDF789FA00200290039002A996
:103330000948FFF751FD08B1FDF77FFA0020009022
:10334000019069460448FFF7AEFB08B1FDF775FA36
:1033500007B000BD002C0140A801002000B589B0D5
:103360000020079008901C216846FCF704FF1C48C9
:103370001C4908600020486000211A4881604FF60F
:10338000FF71C160002101618161FFF7B9FC08B1E3
:10339000FDF753FA00200790089007A91148FFF79E
:1033A00082FB08B1FDF749FA6020009001200190EE
:1033B000002002900490002269460A48FFF71CFC96
:1033C00008B1FDF73AFA042269460648FFF714FCF3
:1033D00008B1FDF732FA0348FFF7C2FB09B000BDA0
:1033E00000040040E801002000B589B000200790EB
:1033F00008901C216846FCF7BEFE1E481E49086066
:103400000020486000211C4881604FF6FF71C160B8
:10341000002101618161FFF773FC08B1FDF70DFA2E
:1034200000200790089007A91348FFF73CFB08B15C
:10343000FDF703FA60200090012001900020029027
:103440000490082269460C48FFF7D6FB08B1FDF747
:10345000F4F94FF47A7001900C2269460648FFF7A0
:10346000CBFB08B1FDF7E9F90348FFF779FB09B099
:1034700000BD0000000800402802002010B50B48E5
:103480000B4908604FF4E130486000210848816032
:10349000C16001610C21416100218161C161016252
:1034A000FFF792FD08B1FDF7C8F910BD00380140E3
:1034B0006802002010B509480949086008204860E2
:1034C00002210748816000218161C1610162FEF72C
:1034D00050FB08B1FDF7B1F910BD0000005C0040E1
:1034E000AC02002000BFFEE770472DE9F04705461B
:1034F000BDE12868B0F8449009F00F06002E7ED197
:1035000009F01000B0BB00BF2968098848F60F72A7
:1035100001EA020040F400412A68118000BF05F171
:1035200028042868B0F85010207801EBC000801CF7
:10353000296801F5806131F81000C0F30900E061ED
:10354000E16960690844606100212846FEF706FAD7
:1035500095F824000028CBD0A0690028C8D195F8A0
:10356000240040F080002968A1F84C00002085F874
:1035700024007CE1FFE705F594742868B0F800802A
:1035800008F4006030B32868B0F85010207801EBE0
:10359000C000801D296801F5806131F81000C0F37A
:1035A0000900E061A18B8BB2E28805F50C712868F7
:1035B00001F09EFA00BF2968098840F68F7201EA7F
:1035C000020040F080012A68118000BF2846FEF703
:1035D000AFFB4CE108F40040002889D000BF296807
:1035E000098840F68F7201EA020040F080012A68E3
:1035F000118000BF2868B0F85010207800E069E022
:1036000001EBC000801D296801F5806131F81000D0
:10361000C0F30900E061E06990B1606980B1B4F87D
:103620001CC01FFA8CF3E2886169286801F060FA17
:10363000E16960690844606100212846FEF78FF95E
:1036400000BF2A682968B1F850100A4402F20C4100
:10365000084600BF236953B9038848F2FF3C03EAD8
:103660000C030380038843F4004303801EE02369B6
:103670003E2B0DD800BF23695908237C03F00103BA
:1036800003B1491C4FF6FF7303EA812303800DE069
:1036900000BF23695909237C03F01F0303B9491EA6
:1036A0004FF4004343EA8123038000BF00BF00BF03
:1036B00000BF296809884BF68F7201EA020080F486
:1036C000805080F4005040F4004141F080012A68AD
:1036D0001180CCE07100286830F8118008F40040B7
:1036E00000287ED000BF7200296831F8121040F621
:1036F0008F7201EA020040F0800173002A6822F80C
:10370000131000BF05F5947000EB4614207BB0B990
:103710002868B0F85010207801EBC000801D29689F
:1037200001F5806131F81000C0F30907002F4FD078
:10373000E28861693B46286801F0DAF948E02178BF
:103740004900286830F8110000F48040A8B12868CA
:10375000B0F85010207801EBC000801C296801F5FA
:10376000806131F81000C0F30907DFB12289616977
:103770003B46286801F0BCF914E02868B0F8501006
:10378000207801EBC000801D296801F5806131F8C7
:103790001000C0F309072FB1628961693B462868B0
:1037A00001F0A6F900BF00BF22785200296831F865
:1037B000121048F68F7201EA020040F4004141F015
:1037C000C00123785B002A6822F8131000BF00BFF5
:1037D000E0693844E061606938446061A06920B103
:1037E00000E00DE02069B84204D921782846FEF7B0
:1037F000B6F805E021782846D4E90523FEF7B0F8AD
:1038000008F0800060B305F1280000EB461400BF0B
:103810007200296831F8121048F60F7201EA0200AE
:1038200040F4004173002A6822F8131000BF286892
:10383000B0F85010207801EBC000801C296801F519
:10384000806131F81000C0F30900E061E16960694E
:1038500008446061A06920B921782846FEF77EF807
:1038600005E021782846D4E90523FEF79DF828686D
:10387000B0F8440000F4004000287FF43AAEBDE800
:10388000F087000070B500240025002616494888FE
:10389000FCF7E7FD0446214614480068FCF7C8FC25
:1038A0000546134801682846FCF7C8FC064611493E
:1038B0003046FCF729FE05D24FF6FF700E49096825
:1038C00048630FE000213046FCF714FE04D20020CC
:1038D00009490968486305E03046FCF7C7FD064919
:1038E0000968486370BD00006C00002014000020CF
:1038F0001800002000FF7F47E8010020704700000B
:1039000008B508490968C9084FF47A72B1FBF2F1A9
:103910004143009100BF00BF00994A1E0092002958
:10392000F9D108BD2800002010B50248FEF704FEBA
:1039300010BD00005001002010B504462068C0688A
:10394000A16B0880A06B801CA063E08F401EE08705
:10395000E08F50B92068406820F04000216848603E
:10396000E08E10B9204600F04FF810BD10B50446A7
:103970002068007BA16B0870A06B401CA063E08FE7
:10398000401EE087E08F50B92068406820F060005A
:1039900021684860E08E10B9204600F035F810BD6F
:1039A00010B50446206B00882168C860206B801C1D
:1039B0002063E08E401EE086E08E50B920684068AB
:1039C00020F0800021684860E08F10B9204600F0A8
:1039D0001BF810BD10B50446206B007821680873F1
:1039E000206B401C2063E08E401EE086E08E50B9C4
:1039F0002068406820F0800021684860E08F10B99E
:103A0000204600F001F810BD7CB504462C48006843
:103A10001821B0FBF1F04FF47A71B0FBF1F06421A2
:103A200048430190FDF7ACFD05462068406820F052
:103A300020002168486000BF019820B9606D40F007
:103A40002000606508E00198401E019020688068B1
:103A500000F002000028EFD000BF2A466421204673
:103A600000F0F6F818B1606D40F020006065A068C5
:103A700050B900BF002000902068C0680090206806
:103A80008068009000BF00BF606D88B994F8510055
:103A9000042806D1012084F851002046FEF7DCFE00
:103AA0000CE0012084F851002046FEF7E1FF05E01C
:103AB000012084F851002046FEF73CFD7CBD00004B
:103AC0002800002038B504462068406820F06000D7
:103AD00021684860FDF754FD05462A4664212046CA
:103AE00000F07AF818B1606D40F020006065A068C1
:103AF00050B900BF002000902068C0680090206886
:103B00008068009000BF00BF012084F85100606D04
:103B100018B92046FEF7A0FE02E02046FEF70AFD97
:103B200038BD00007CB50446254800681821B0FB6C
:103B3000F1F04FF47A71B0FBF1F064214843019049
:103B4000FDF71EFD054600BF019820B9606D40F0ED
:103B50002000606508E00198401E019020688068A0
:103B600000F002000028EFD000BF2068406820F07D
:103B7000A000216848602A466421204600F068F8C9
:103B800018B1606D40F020006065A06850B900BFBA
:103B9000002000902068C068009020688068009035
:103BA00000BF00BF012084F85100606D18B12046AD
:103BB000FEF7C0FC02E02046FEF732FF7CBD0000AD
:103BC0002800002070B505466C6A0020E087E0867A
:103BD0002046FEF7AFFC70BDF8B504460E4615460C
:103BE0006068B0F5827F0DD1A068B0F5004F03D0BA
:103BF000A068B0F5806F05D12068006820F0400013
:103C0000216808606068B0F5827F11D1A068B0F5C6
:103C1000806F0DD13346002201212046009500F02F
:103C200073F898B1606D40F0200060650320F8BD26
:103C30003346002280212046009500F065F828B127
:103C4000606D40F0200060650320F0E70020EEE7A3
:103C5000F8B504460D4616462B4600228021204624
:103C6000009600F051F828B1606D40F020006065CA
:103C70000320F8BD0020FCE710B504462068C068AA
:103C8000A16B0880A06B801CA063E08F401EE087C2
:103C9000E08F10B92046FFF715FF10BD10B50446A0
:103CA0002068007BA16B0870A06B401CA063E08FB4
:103CB000401EE087E08F10B92046FFF703FF10BDDC
:103CC00010B50446206B00882168C860206B801CFA
:103CD0002063E08E401EE086E08E10B92046FFF79C
:103CE00021FF10BD10B50446206B007821680873D1
:103CF000206B401C2063E08E401EE086E08E10B9F1
:103D00002046FFF70FFF10BD2DE9F04104460E4697
:103D100017461D46DDF818803EE0681CD8B3FDF755
:103D20002FFCA0EB0800A84200D2A5BB2068406889
:103D300020F0E000216848606068B0F5827F0DD116
:103D4000A068B0F5004F03D0A068B0F5806F05D132
:103D50002068006820F0400021680860A06AB0F583
:103D6000005F0DD100BF2068006820F4005021687A
:103D700008602068006840F400502168086000BFB7
:103D8000012084F8510000BF002084F8500000BFDB
:103D90000320BDE8F081FFE7206880683040B04232
:103DA00001D1012000E00020B842B6D10020F0E7A8
:103DB000704710B5FDF700FD10BD00B593B0282188
:103DC00009A8FCF7D8F9142104A8FCF7D4F90020BD
:103DD00000900190029003900120099000040A9045
:103DE00000200B9001200D9002201090C103119132
:103DF000C104129109A8FEF76BF908B1FCF71DFD8B
:103E00000F20049002200590002006904FF480605F
:103E1000079000200890012104A8FEF723F808B1BC
:103E2000FCF70BFD122000904FF48040029000023E
:103E300003906846FDF77EFF08B1FCF7FEFC13B067
:103E400000BD00001148006840F001000F49086003
:103E5000084640680E4908400C494860084600681A
:103E60000C490840094908600846006820F4802091
:103E700008600846406820F4FE0048604FF41F00C8
:103E80008860C803044908607047000000100240C1
:103E90000000FFF8FFFFF6FE08ED00E010B5026835
:103EA000184B984208D0B0F1804F05D0164B98427D
:103EB00002D0164B984203D122F070024B681A438D
:103EC000104B984208D0B0F1804F05D00E4B98426D
:103ED00002D00E4B984203D122F44072CB681A43B1
:103EE00022F080034C6943EA040202608B68C362DB
:103EF0000B688362034B984201D10B690363012372
:103F0000436110BD002C0140000400400008004047
:103F100030B501F01F05012404FA05F3046A9C433F
:103F20000462046A01F01F0502FA05F52C430462DD
:103F300030BD30B50C46816821F47F4142EA03254B
:103F400025432943816030BD30B5056A25F0010560
:103F50000562026A4368846924F0700424F0030453
:103F60000D682C4322F002028D682A430D4DA842B1
:103F700006D100BF22F00802CD682A4322F00402D5
:103F8000084DA84207D123F4807323F400734D69D0
:103F90002B438D692B43436084614D684563026206
:103FA00030BD0000002C014030B5056A25F0100539
:103FB0000562026A4368846924F4E04424F440748E
:103FC0000D6844EA052422F020028D6842EA0512B9
:103FD0000E4DA84207D100BF22F08002CD6842EA10
:103FE000051222F04002094DA84209D123F4806352
:103FF00023F400634D6943EA85038D6943EA850331
:10400000436084614D688563026230BD002C0140CD
:1040100030B5056A25F480750562026A4368C46993
:1040200024F0700424F003040D682C4322F4007281
:104030008D6842EA05220F4DA84207D100BF22F445
:104040000062CD6842EA052222F48062094DA8424E
:1040500009D123F4805323F400534D6943EA051337
:104060008D6943EA05134360C4614D68C56302620C
:1040700030BD0000002C014030B5056A25F48055A4
:104080000562036A4468C26922F4E04222F4407285
:104090000D6842EA052223F400538D6843EA053394
:1040A000064DA84204D124F480444D6944EA8514A5
:1040B0004460C2614D680564036230BD002C01405C
:1040C0002DE9F04105460C462868866826F0700602
:1040D0006068064326F00706206806432868866065
:1040E000606800F00F0100293BD10011082838D288
:1040F000DFE800F0333435360B272D04D4E9031301
:10410000A2682868FFF715FF2CE02068052802D177
:104110000120BDE8F0812868D0F820802868006A76
:1041200020F00100296808622868876927F0F007F5
:10413000206947EA0017286887612868C0F820804E
:1041400010E02269A168286800F00FF80AE02269EF
:10415000A168286800F01CF804E000BF00BF00BFA1
:1041600000E000BF00BF0020D3E730B50B46144687
:10417000026A056A25F001050562816921F0F001F6
:1041800041EA041122F00A021A438161026230BD41
:1041900030B50B461446056A25F0100505628169A5
:1041A000026A21F4704141EA043122F0A00242EA9D
:1041B00003128161026230BD10B50248FEF744FE71
:1041C00010BD00006802002070B505466C6A002032
:1041D000608660852046FEF735FE70BD0168C968BF
:1041E00021F490710268D1600168496921F00101F0
:1041F00002685161012180F83D10704710B50446F6
:104200002068C06820F040002168C86020684069CC
:1042100020F0010021684861012084F83D0020461B
:10422000FEF74DFF002010BD70B5044694F83D0028
:10423000222858D1A068B0F5805F1CD1E56A2069BA
:1042400040B920684068C0F308002880E06A801CFC
:10425000E06206E020684068C0B22880E06A401C46
:10426000E062608E401E80B26086F0B140F2FF10C6
:104270002168486019E0206938B920684068C1B2F7
:10428000E26A501CE062117007E02068406800F0AC
:104290007F01E26A501CE0621170608E401E80B2A5
:1042A000608610B1FF2021684860608EC8B9206820
:1042B000C06820F020002168C8602068C06820F431
:1042C00080702168C8602068406920F00100216882
:1042D0004861012084F83D002046FEF7EFFE0020F3
:1042E00070BD0020FCE70220FAE7000070B504462C
:1042F00000252168C96821F00C012268D16021687D
:104300000D6925F47C55A16941F40061E26911430E
:10431000226A1143E26811430D4321680D6121684F
:10432000CD6841F20C618D432269A1681143626935
:1043300011430D432168CD602168496921F4407122
:1043400022685161574A2168914255D1FDF766FEB6
:1043500000EBC00101EB001162689200B1FBF2F1C9
:104360006422B1FBF2F10A0100EBC00101EB001184
:1043700063689B00B1FBF3F100EBC00303EB001398
:104380006668B600B3FBF6F36426B3FBF6F303EB03
:10439000C30606EB0313A1EB8301322303EB0111E8
:1043A0006423B1FBF3F101F0F00102EB410200EBF9
:1043B000C00101EB001163689B00B1FBF3F100EB5E
:1043C000C00303EB00136668B600B3FBF6F3642684
:1043D000B3FBF6F303EBC30606EB0313A1EB830178
:1043E000322303EB01116423B1FBF3F101F00F0160
:1043F00011442268916054E0FDF700FE00EBC0011B
:1044000001EB001162689200B1FBF2F16422B1FB92
:10441000F2F10A0100EBC00101EB001163689B009F
:10442000B1FBF3F100EBC00303EB00136668B600C9
:10443000B3FBF6F36426B3FBF6F303EBC30606EB1C
:104440000313A1EB8301322303EB01116423B1FBBE
:10445000F3F101F0F00102EB410200EBC00101EBCE
:10446000001163689B00B1FBF3F100EBC00303EBA9
:1044700000136668B600B3FBF6F36426B3FBF6F3ED
:1044800003EBC30606EB0313A1EB8301322303EB1B
:1044900001116423B1FBF3F101F00F011144226813
:1044A000916070BD0038014070B5044694F83D003D
:1044B00032287ED1608D48B320680068C0F3C010F8
:1044C00020B3A068B0F5805F0FD1656A2888C0F37B
:1044D000080021684860206918B9606A801C606221
:1044E00009E0606A401C606205E0616A481C606225
:1044F000087821684860608D401E6085608D28B90D
:104500002068C06820F080002168C860608E88B391
:1045100020680068C0F3401060B3A068B0F5805F09
:1045200013D1E56A206940B920684068C0F30800EB
:104530002880E06A801CE06219E020684068C0B210
:104540002880E06A401CE06211E0206938B92068E8
:104550004068C1B2E26A501CE062117007E0206856
:10456000406800F07F01E26A501CE0621170608ECA
:10457000401E6086608ED0B92068C06820F02000A0
:104580002168C8602068C06820F480702168C86015
:104590002068406920F0010021684861012084F80A
:1045A0003D002046FEF78CFD002070BD01E000209C
:1045B000FBE70220F9E7014691F83D0012282CD1D3
:1045C0008868B0F5805F0FD14A6A1088C0F3080090
:1045D0000B685860086918B9486A801C486209E08D
:1045E000486A401C486205E04B6A581C48621878CB
:1045F0000B685860488D401E80B2488558B90868DD
:10460000C06820F080000B68D8600868C06840F07F
:1046100040000B68D860002070470220FCE710B50E
:104620000446002010BD01460020704710B5044626
:10463000012024F8400F00202080A0802082403CF0
:10464000204600F036FA002010BD01464FF43F42EC
:10465000B1F840009043A1F84000002070472DE9D8
:10466000F04306460C466078012871D12169A069A3
:10467000884204D92569A069401BA06102E0A569B0
:104680000020A061207BA0B9ABB2E288304661690E
:1046900000F05DFA00BF3046B6F850201044227892
:1046A000022303EBC20200F5806303EB42010D809D
:1046B000E2E02078400036F8100000F040000028CA
:1046C0005AD000BF3346607880BB00BF3246B6F890
:1046D00050100A4421784FF0060808EBC10102F59A
:1046E000806808EB4101084600BF75B9B0F800804A
:1046F00048F2FF3908EA0908A0F80080B0F8008005
:1047000048F40048A0F8008020E03E2D0FD800BFFC
:10471000690805F00108B8F1000F00D0491C4FF6F8
:10472000FF7808EA8128A0F800800FE011E000BFC0
:10473000690905F01F08B8F1000F00D1491E4FF4B8
:10474000004848EA8128A0F8008000BF00BF10E0C0
:10475000A8E0607801280CD1B6F850000344207816
:10476000062101EBC00003F5806101EB400CACF8C1
:10477000005000BF67894EE000BF6078B0BB00BF4B
:104780003246B6F850100A442178022303EBC101E7
:1047900002F5806303EB4101084600BF55B9038869
:1047A00048F2FF3C03EA0C030380038843F4004310
:1047B000038019E03E2D0BD800BF690805F0010306
:1047C00003B1491C4FF6FF7303EA812303800BE01A
:1047D00000BF690905F01F0303B9491E4FF40043E8
:1047E00043EA8123038000BF00BF12E0FFE7607847
:1047F00001280ED100BF3046B6F850201044227870
:10480000022303EBC20200F5806303EB42010D803B
:1048100000BF00BF2789ABB23A463046616900F05D
:1048200096F900BF607888B900BF2178490036F852
:10483000111048F68F7201EA020040F4004141F085
:10484000C0012278520026F8121014E06078012886
:1048500011D100BF2178490036F8111048F68F7247
:1048600001EA020040F4004141F481412278520003
:1048700026F8121000BF00BF00BF2178490036F8AB
:10488000111048F6BF7201EA020080F0100080F0BB
:10489000200040F4004141F080012278520026F8C7
:1048A000121003E12169A069884204D92569A06931
:1048B000401BA06102E0A5690020A061207BB0BB85
:1048C00000BF3246B6F850100A442178062303EBA5
:1048D000C10102F5806303EB4101084600BF55B9F1
:1048E000038848F2FF3C03EA0C030380038843F487
:1048F0000043038019E03E2D0BD800BF690805F086
:10490000010303B1491C4FF6FF7303EA81230380BF
:104910000BE000BF690905F01F0303B9491E4FF4FE
:10492000004343EA8123038000BF00BFA8E0FFE704
:1049300000BF00BF6078B0BB00BF3246B6F8501071
:104940000A442178022303EBC10102F5806303EBE3
:104950004101084600BF55B9038848F2FF3C03EA0D
:104960000C030380038843F40043038019E03E2DC9
:104970000BD800BF690805F0010303B1491C4FF6CD
:10498000FF7303EA812303800BE000BF690905F090
:104990001F0303B9491E4FF4004343EA81230380F8
:1049A00000BF00BF12E0FFE7607801280ED100BF12
:1049B0003046B6F8502010442278022303EBC2029E
:1049C00000F5806303EB42010D8000BF00BF00BF14
:1049D0003346607880BB00BF3246B6F850100A44B8
:1049E00021784FF0060808EBC10102F5806808EB5A
:1049F0004101084600BF75B9B0F8008048F2FF39A0
:104A000008EA0908A0F80080B0F8008048F40048DF
:104A1000A0F8008020E03E2D0FD800BF690805F007
:104A20000108B8F1000F00D0491C4FF6FF7808EAE2
:104A30008128A0F800800FE010E000BF690905F0B0
:104A40001F08B8F1000F00D1491E4FF4004848EA92
:104A50008128A0F8008000BF00BF0FE06078012827
:104A60000CD1B6F8500003442078062101EBC000B9
:104A700003F5806101EB400CACF8005000BF00BFB3
:104A800000BF2178490036F811104BF68F7201EA09
:104A9000020080F4805080F4005040F4004141F066
:104AA00080012278520026F8121000BF0020BDE8D5
:104AB000F08301464FF43F42B1F840001043A1F8A3
:104AC000400000207047000010B50248FCF791FF3D
:104AD00010BD0000AC02002010B50248FCF789FFB1
:104AE00010BD0000AC0200200146B1F84400704740
:104AF0002DE9F04304460E4615464FEA530CA046F6
:104B0000304608F5806909EB450267460AE01188DE
:104B1000921C0170401C4FEA112980F80090401C43
:104B2000921C7F1E002FF2D103F00109B9F1000F92
:104B300001D011880170BDE8F08302460020704763
:104B4000024611B98020A2F84C00002070472DE9E0
:104B5000F04704460D461E4606F1010A4FEA5A0880
:104B6000A146284609F5806A0AEB420347460BE056
:104B700090F800C0401C90F800A04CEA0A2119806F
:104B80009B1C9B1C401C7F1E002FF1D1BDE8F087B1
:104B900000BFFEE702480068C0F302207047000033
:104BA0000CED00E010B5002804DB0A07130E054ADF
:104BB000135406E00A07140E034A00F00F031B1FEC
:104BC000D45410BD00E400E018ED00E002E008C895
:104BD000121F08C1002AFAD170477047002001E077
:104BE00001C1121F002AFBD17047000008B5FCF775
:104BF000EFFDFFF7E2F8FEF7E7FAFEF7CBFAFEF774
:104C000063FAFEF739FBFEF755FCFEF7A7FBFEF74C
:104C100035FCFEF7E9FBFEF74DFBFEF76BFB0821C9
:104C20003648FEF7B3F80C213448FEF7AFF8002001
:104C300032490968C863314909680864002130486D
:104C4000FEF7A4F804212E48FEF7A0F800202C4916
:104C5000096848632A4909688863062229492A485D
:104C6000FCF786F8102229492948FDF78FFD2949CC
:104C70008888FBF7F6FB044626494888FBF7F1FBDA
:104C80000090FBF707FC80464FF06632224BFBF7A3
:104C900007FB06460022214BFBF774FB0446FBF79B
:104CA0000CFC82461B490888FBF7DBFB0090FBF7F6
:104CB000F1FB06464FF06632174BFBF7F1FA8046E0
:104CC0000022164BFBF75EFB0446FBF7F6FB834620
:104CD00051465846FBF7ACFA044600BFC5201049C0
:104CE00008701020887080204870FF2008720D48DE
:104CF000486001E0FEF7C6FDFCE700002802002046
:104D0000E80100202C00002088000020780000200E
:104D1000500100203800002066660A4000FEAF40C7
:104D20005C0000206C00002000000000000000007B
:104D30000102030406070809000000000102030441
:104D4000604D0008000000202C000000CC4B000843
:104D50008C4D00082C000020EC080000DC4B000803
:104D60000000350280240102010201020102010259
:104D7000010200000000064300007A440000000029
:0C4D800010000000010000000024F400FE
:04000005080000ED02
:00000001FF
